{
  "contractName": "LobbyServer",
  "abi": [
    {
      "inputs": [
        {
          "internalType": "contract PlayerAuth",
          "name": "playerAuth",
          "type": "address"
        }
      ],
      "stateMutability": "nonpayable",
      "type": "constructor"
    },
    {
      "anonymous": false,
      "inputs": [
        {
          "indexed": true,
          "internalType": "address",
          "name": "owner",
          "type": "address"
        },
        {
          "indexed": true,
          "internalType": "address",
          "name": "approved",
          "type": "address"
        },
        {
          "indexed": true,
          "internalType": "uint256",
          "name": "tokenId",
          "type": "uint256"
        }
      ],
      "name": "Approval",
      "type": "event"
    },
    {
      "anonymous": false,
      "inputs": [
        {
          "indexed": true,
          "internalType": "address",
          "name": "owner",
          "type": "address"
        },
        {
          "indexed": true,
          "internalType": "address",
          "name": "operator",
          "type": "address"
        },
        {
          "indexed": false,
          "internalType": "bool",
          "name": "approved",
          "type": "bool"
        }
      ],
      "name": "ApprovalForAll",
      "type": "event"
    },
    {
      "anonymous": false,
      "inputs": [
        {
          "indexed": true,
          "internalType": "address",
          "name": "from",
          "type": "address"
        },
        {
          "indexed": true,
          "internalType": "address",
          "name": "to",
          "type": "address"
        },
        {
          "indexed": true,
          "internalType": "uint256",
          "name": "tokenId",
          "type": "uint256"
        }
      ],
      "name": "Transfer",
      "type": "event"
    },
    {
      "inputs": [
        {
          "internalType": "address",
          "name": "to",
          "type": "address"
        },
        {
          "internalType": "uint256",
          "name": "tokenId",
          "type": "uint256"
        }
      ],
      "name": "approve",
      "outputs": [],
      "stateMutability": "nonpayable",
      "type": "function"
    },
    {
      "inputs": [
        {
          "internalType": "address",
          "name": "owner",
          "type": "address"
        }
      ],
      "name": "balanceOf",
      "outputs": [
        {
          "internalType": "uint256",
          "name": "",
          "type": "uint256"
        }
      ],
      "stateMutability": "view",
      "type": "function"
    },
    {
      "inputs": [
        {
          "internalType": "uint256",
          "name": "tokenId",
          "type": "uint256"
        }
      ],
      "name": "getApproved",
      "outputs": [
        {
          "internalType": "address",
          "name": "",
          "type": "address"
        }
      ],
      "stateMutability": "view",
      "type": "function"
    },
    {
      "inputs": [
        {
          "internalType": "address",
          "name": "owner",
          "type": "address"
        },
        {
          "internalType": "address",
          "name": "operator",
          "type": "address"
        }
      ],
      "name": "isApprovedForAll",
      "outputs": [
        {
          "internalType": "bool",
          "name": "",
          "type": "bool"
        }
      ],
      "stateMutability": "view",
      "type": "function"
    },
    {
      "inputs": [],
      "name": "name",
      "outputs": [
        {
          "internalType": "string",
          "name": "",
          "type": "string"
        }
      ],
      "stateMutability": "view",
      "type": "function"
    },
    {
      "inputs": [
        {
          "internalType": "uint256",
          "name": "tokenId",
          "type": "uint256"
        }
      ],
      "name": "ownerOf",
      "outputs": [
        {
          "internalType": "address",
          "name": "",
          "type": "address"
        }
      ],
      "stateMutability": "view",
      "type": "function"
    },
    {
      "inputs": [
        {
          "internalType": "address",
          "name": "from",
          "type": "address"
        },
        {
          "internalType": "address",
          "name": "to",
          "type": "address"
        },
        {
          "internalType": "uint256",
          "name": "tokenId",
          "type": "uint256"
        }
      ],
      "name": "safeTransferFrom",
      "outputs": [],
      "stateMutability": "nonpayable",
      "type": "function"
    },
    {
      "inputs": [
        {
          "internalType": "address",
          "name": "from",
          "type": "address"
        },
        {
          "internalType": "address",
          "name": "to",
          "type": "address"
        },
        {
          "internalType": "uint256",
          "name": "tokenId",
          "type": "uint256"
        },
        {
          "internalType": "bytes",
          "name": "_data",
          "type": "bytes"
        }
      ],
      "name": "safeTransferFrom",
      "outputs": [],
      "stateMutability": "nonpayable",
      "type": "function"
    },
    {
      "inputs": [
        {
          "internalType": "address",
          "name": "operator",
          "type": "address"
        },
        {
          "internalType": "bool",
          "name": "approved",
          "type": "bool"
        }
      ],
      "name": "setApprovalForAll",
      "outputs": [],
      "stateMutability": "nonpayable",
      "type": "function"
    },
    {
      "inputs": [
        {
          "internalType": "bytes4",
          "name": "interfaceId",
          "type": "bytes4"
        }
      ],
      "name": "supportsInterface",
      "outputs": [
        {
          "internalType": "bool",
          "name": "",
          "type": "bool"
        }
      ],
      "stateMutability": "view",
      "type": "function"
    },
    {
      "inputs": [],
      "name": "symbol",
      "outputs": [
        {
          "internalType": "string",
          "name": "",
          "type": "string"
        }
      ],
      "stateMutability": "view",
      "type": "function"
    },
    {
      "inputs": [
        {
          "internalType": "uint256",
          "name": "tokenId",
          "type": "uint256"
        }
      ],
      "name": "tokenURI",
      "outputs": [
        {
          "internalType": "string",
          "name": "",
          "type": "string"
        }
      ],
      "stateMutability": "view",
      "type": "function"
    },
    {
      "inputs": [
        {
          "internalType": "address",
          "name": "from",
          "type": "address"
        },
        {
          "internalType": "address",
          "name": "to",
          "type": "address"
        },
        {
          "internalType": "uint256",
          "name": "tokenId",
          "type": "uint256"
        }
      ],
      "name": "transferFrom",
      "outputs": [],
      "stateMutability": "nonpayable",
      "type": "function"
    },
    {
      "inputs": [
        {
          "internalType": "string",
          "name": "name",
          "type": "string"
        },
        {
          "internalType": "string",
          "name": "ip",
          "type": "string"
        },
        {
          "internalType": "uint256",
          "name": "port",
          "type": "uint256"
        }
      ],
      "name": "RegisterServer",
      "outputs": [
        {
          "internalType": "uint256",
          "name": "",
          "type": "uint256"
        }
      ],
      "stateMutability": "nonpayable",
      "type": "function"
    },
    {
      "inputs": [
        {
          "internalType": "uint256",
          "name": "id",
          "type": "uint256"
        }
      ],
      "name": "RemoveServer",
      "outputs": [],
      "stateMutability": "nonpayable",
      "type": "function"
    },
    {
      "inputs": [
        {
          "internalType": "uint256",
          "name": "id",
          "type": "uint256"
        }
      ],
      "name": "KeepAlive",
      "outputs": [],
      "stateMutability": "nonpayable",
      "type": "function"
    },
    {
      "inputs": [],
      "name": "ServerList",
      "outputs": [
        {
          "internalType": "uint256[]",
          "name": "",
          "type": "uint256[]"
        }
      ],
      "stateMutability": "view",
      "type": "function"
    },
    {
      "inputs": [
        {
          "internalType": "uint256",
          "name": "id",
          "type": "uint256"
        }
      ],
      "name": "GetServer",
      "outputs": [
        {
          "components": [
            {
              "internalType": "address",
              "name": "owner",
              "type": "address"
            },
            {
              "internalType": "string",
              "name": "name",
              "type": "string"
            },
            {
              "internalType": "string",
              "name": "ip",
              "type": "string"
            },
            {
              "internalType": "uint256",
              "name": "port",
              "type": "uint256"
            },
            {
              "internalType": "uint256",
              "name": "_time",
              "type": "uint256"
            },
            {
              "internalType": "uint256",
              "name": "_index",
              "type": "uint256"
            }
          ],
          "internalType": "struct Server",
          "name": "",
          "type": "tuple"
        }
      ],
      "stateMutability": "view",
      "type": "function"
    }
  ],
  "bytecode": "0x60806040523480156200001157600080fd5b50604051620037dc380380620037dc83398181016040528101906200003791906200024d565b6040518060400160405280600681526020017f53657276657200000000000000000000000000000000000000000000000000008152506040518060400160405280600681526020017f53455256455200000000000000000000000000000000000000000000000000008152508160009080519060200190620000bb9291906200011f565b508060019080519060200190620000d49291906200011f565b50505080600760006101000a81548173ffffffffffffffffffffffffffffffffffffffff021916908373ffffffffffffffffffffffffffffffffffffffff16021790555050620002e4565b8280546200012d90620002ae565b90600052602060002090601f0160209004810192826200015157600085556200019d565b82601f106200016c57805160ff19168380011785556200019d565b828001600101855582156200019d579182015b828111156200019c5782518255916020019190600101906200017f565b5b509050620001ac9190620001b0565b5090565b5b80821115620001cb576000816000905550600101620001b1565b5090565b600080fd5b600073ffffffffffffffffffffffffffffffffffffffff82169050919050565b60006200020182620001d4565b9050919050565b60006200021582620001f4565b9050919050565b620002278162000208565b81146200023357600080fd5b50565b60008151905062000247816200021c565b92915050565b600060208284031215620002665762000265620001cf565b5b6000620002768482850162000236565b91505092915050565b7f4e487b7100000000000000000000000000000000000000000000000000000000600052602260045260246000fd5b60006002820490506001821680620002c757607f821691505b60208210811415620002de57620002dd6200027f565b5b50919050565b6134e880620002f46000396000f3fe608060405234801561001057600080fd5b50600436106101165760003560e01c806395d89b41116100a2578063b88d4fde11610071578063b88d4fde146102dd578063c87b56dd146102f9578063ccdb6b2814610329578063e985e9c514610359578063eb5ea61e1461038957610116565b806395d89b41146102695780639947b6bf14610287578063a22cb465146102a3578063ad013d1d146102bf57610116565b806323b872dd116100e957806323b872dd146101b5578063289e2ec5146101d157806342842e0e146101ed5780636352211e1461020957806370a082311461023957610116565b806301ffc9a71461011b57806306fdde031461014b578063081812fc14610169578063095ea7b314610199575b600080fd5b610135600480360381019061013091906120e3565b6103b9565b604051610142919061212b565b60405180910390f35b61015361049b565b60405161016091906121df565b60405180910390f35b610183600480360381019061017e9190612237565b61052d565b60405161019091906122a5565b60405180910390f35b6101b360048036038101906101ae91906122ec565b6105b2565b005b6101cf60048036038101906101ca919061232c565b6106ca565b005b6101eb60048036038101906101e69190612237565b61072a565b005b6102076004803603810190610202919061232c565b61097d565b005b610223600480360381019061021e9190612237565b61099d565b60405161023091906122a5565b60405180910390f35b610253600480360381019061024e919061237f565b610a4f565b60405161026091906123bb565b60405180910390f35b610271610b07565b60405161027e91906121df565b60405180910390f35b6102a1600480360381019061029c9190612237565b610b99565b005b6102bd60048036038101906102b89190612402565b610c9f565b005b6102c7610cb5565b6040516102d49190612500565b60405180910390f35b6102f760048036038101906102f29190612657565b610d0d565b005b610313600480360381019061030e9190612237565b610d6f565b60405161032091906121df565b60405180910390f35b610343600480360381019061033e9190612237565b610e16565b60405161035091906127c3565b60405180910390f35b610373600480360381019061036e91906127e5565b610fdb565b604051610380919061212b565b60405180910390f35b6103a3600480360381019061039e91906128c6565b61106f565b6040516103b091906123bb565b60405180910390f35b60007f80ac58cd000000000000000000000000000000000000000000000000000000007bffffffffffffffffffffffffffffffffffffffffffffffffffffffff1916827bffffffffffffffffffffffffffffffffffffffffffffffffffffffff1916148061048457507f5b5e139f000000000000000000000000000000000000000000000000000000007bffffffffffffffffffffffffffffffffffffffffffffffffffffffff1916827bffffffffffffffffffffffffffffffffffffffffffffffffffffffff1916145b8061049457506104938261123e565b5b9050919050565b6060600080546104aa90612980565b80601f01602080910402602001604051908101604052809291908181526020018280546104d690612980565b80156105235780601f106104f857610100808354040283529160200191610523565b820191906000526020600020905b81548152906001019060200180831161050657829003601f168201915b5050505050905090565b6000610538826112a8565b610577576040517f08c379a000000000000000000000000000000000000000000000000000000000815260040161056e90612a24565b60405180910390fd5b6004600083815260200190815260200160002060009054906101000a900473ffffffffffffffffffffffffffffffffffffffff169050919050565b60006105bd8261099d565b90508073ffffffffffffffffffffffffffffffffffffffff168373ffffffffffffffffffffffffffffffffffffffff16141561062e576040517f08c379a000000000000000000000000000000000000000000000000000000000815260040161062590612ab6565b60405180910390fd5b8073ffffffffffffffffffffffffffffffffffffffff1661064d611314565b73ffffffffffffffffffffffffffffffffffffffff16148061067c575061067b81610676611314565b610fdb565b5b6106bb576040517f08c379a00000000000000000000000000000000000000000000000000000000081526004016106b290612b48565b60405180910390fd5b6106c5838361131c565b505050565b6106db6106d5611314565b826113d5565b61071a576040517f08c379a000000000000000000000000000000000000000000000000000000000815260040161071190612bda565b60405180910390fd5b6107258383836114b3565b505050565b6001600760009054906101000a900473ffffffffffffffffffffffffffffffffffffffff1673ffffffffffffffffffffffffffffffffffffffff166370a08231336040518263ffffffff1660e01b815260040161078791906122a5565b602060405180830381865afa1580156107a4573d6000803e3d6000fd5b505050506040513d601f19601f820116820180604052508101906107c89190612c0f565b146107d257600080fd5b60006107dd33610a4f565b146107e757600080fd5b3373ffffffffffffffffffffffffffffffffffffffff166108078261099d565b73ffffffffffffffffffffffffffffffffffffffff161461082757600080fd5b600060086000838152602001908152602001600020600501549050600960016009805490506108569190612c6b565b8154811061086757610866612c9f565b5b90600052602060002001546009828154811061088657610885612c9f565b5b906000526020600020018190555060098054806108a6576108a5612cce565b5b600190038181906000526020600020016000905590556000600982815481106108d2576108d1612c9f565b5b9060005260206000200154905081600860008381526020019081526020016000206005018190555060086000848152602001908152602001600020600080820160006101000a81549073ffffffffffffffffffffffffffffffffffffffff02191690556001820160006109459190611f48565b6002820160006109559190611f48565b60038201600090556004820160009055600582016000905550506109788361170f565b505050565b61099883838360405180602001604052806000815250610d0d565b505050565b6000806002600084815260200190815260200160002060009054906101000a900473ffffffffffffffffffffffffffffffffffffffff169050600073ffffffffffffffffffffffffffffffffffffffff168173ffffffffffffffffffffffffffffffffffffffff161415610a46576040517f08c379a0000000000000000000000000000000000000000000000000000000008152600401610a3d90612d6f565b60405180910390fd5b80915050919050565b60008073ffffffffffffffffffffffffffffffffffffffff168273ffffffffffffffffffffffffffffffffffffffff161415610ac0576040517f08c379a0000000000000000000000000000000000000000000000000000000008152600401610ab790612e01565b60405180910390fd5b600360008373ffffffffffffffffffffffffffffffffffffffff1673ffffffffffffffffffffffffffffffffffffffff168152602001908152602001600020549050919050565b606060018054610b1690612980565b80601f0160208091040260200160405190810160405280929190818152602001828054610b4290612980565b8015610b8f5780601f10610b6457610100808354040283529160200191610b8f565b820191906000526020600020905b815481529060010190602001808311610b7257829003601f168201915b5050505050905090565b6001600760009054906101000a900473ffffffffffffffffffffffffffffffffffffffff1673ffffffffffffffffffffffffffffffffffffffff166370a08231336040518263ffffffff1660e01b8152600401610bf691906122a5565b602060405180830381865afa158015610c13573d6000803e3d6000fd5b505050506040513d601f19601f82011682018060405250810190610c379190612c0f565b14610c4157600080fd5b3373ffffffffffffffffffffffffffffffffffffffff16610c618261099d565b73ffffffffffffffffffffffffffffffffffffffff1614610c8157600080fd5b42600860008381526020019081526020016000206004018190555050565b610cb1610caa611314565b8383611820565b5050565b60606009805480602002602001604051908101604052809291908181526020018280548015610d0357602002820191906000526020600020905b815481526020019060010190808311610cef575b5050505050905090565b610d1e610d18611314565b836113d5565b610d5d576040517f08c379a0000000000000000000000000000000000000000000000000000000008152600401610d5490612bda565b60405180910390fd5b610d698484848461198d565b50505050565b6060610d7a826112a8565b610db9576040517f08c379a0000000000000000000000000000000000000000000000000000000008152600401610db090612e93565b60405180910390fd5b6000610dc36119e9565b90506000815111610de35760405180602001604052806000815250610e0e565b80610ded84611a00565b604051602001610dfe929190612eef565b6040516020818303038152906040525b915050919050565b610e1e611f88565b600860008381526020019081526020016000206040518060c00160405290816000820160009054906101000a900473ffffffffffffffffffffffffffffffffffffffff1673ffffffffffffffffffffffffffffffffffffffff1673ffffffffffffffffffffffffffffffffffffffff168152602001600182018054610ea290612980565b80601f0160208091040260200160405190810160405280929190818152602001828054610ece90612980565b8015610f1b5780601f10610ef057610100808354040283529160200191610f1b565b820191906000526020600020905b815481529060010190602001808311610efe57829003601f168201915b50505050508152602001600282018054610f3490612980565b80601f0160208091040260200160405190810160405280929190818152602001828054610f6090612980565b8015610fad5780601f10610f8257610100808354040283529160200191610fad565b820191906000526020600020905b815481529060010190602001808311610f9057829003601f168201915b5050505050815260200160038201548152602001600482015481526020016005820154815250509050919050565b6000600560008473ffffffffffffffffffffffffffffffffffffffff1673ffffffffffffffffffffffffffffffffffffffff16815260200190815260200160002060008373ffffffffffffffffffffffffffffffffffffffff1673ffffffffffffffffffffffffffffffffffffffff16815260200190815260200160002060009054906101000a900460ff16905092915050565b60006001600760009054906101000a900473ffffffffffffffffffffffffffffffffffffffff1673ffffffffffffffffffffffffffffffffffffffff166370a08231336040518263ffffffff1660e01b81526004016110ce91906122a5565b602060405180830381865afa1580156110eb573d6000803e3d6000fd5b505050506040513d601f19601f8201168201806040525081019061110f9190612c0f565b1461111957600080fd5b600061112433610a4f565b1461112e57600080fd5b600060066000815461113f90612f13565b9190508190559050600060086000838152602001908152602001600020905060098290806001815401808255809150506001900390600052602060002001600090919091909150556111913383611b61565b338160000160006101000a81548173ffffffffffffffffffffffffffffffffffffffff021916908373ffffffffffffffffffffffffffffffffffffffff160217905550858160010190805190602001906111ec929190611fd4565b5084816002019080519060200190611205929190611fd4565b5083816003018190555060016009805490506112219190612c6b565b816005018190555042816004018190555081925050509392505050565b60007f01ffc9a7000000000000000000000000000000000000000000000000000000007bffffffffffffffffffffffffffffffffffffffffffffffffffffffff1916827bffffffffffffffffffffffffffffffffffffffffffffffffffffffff1916149050919050565b60008073ffffffffffffffffffffffffffffffffffffffff166002600084815260200190815260200160002060009054906101000a900473ffffffffffffffffffffffffffffffffffffffff1673ffffffffffffffffffffffffffffffffffffffff1614159050919050565b600033905090565b816004600083815260200190815260200160002060006101000a81548173ffffffffffffffffffffffffffffffffffffffff021916908373ffffffffffffffffffffffffffffffffffffffff160217905550808273ffffffffffffffffffffffffffffffffffffffff1661138f8361099d565b73ffffffffffffffffffffffffffffffffffffffff167f8c5be1e5ebec7d5bd14f71427d1e84f3dd0314c0f7b2291e5b200ac8c7c3b92560405160405180910390a45050565b60006113e0826112a8565b61141f576040517f08c379a000000000000000000000000000000000000000000000000000000000815260040161141690612fce565b60405180910390fd5b600061142a8361099d565b90508073ffffffffffffffffffffffffffffffffffffffff168473ffffffffffffffffffffffffffffffffffffffff16148061149957508373ffffffffffffffffffffffffffffffffffffffff166114818461052d565b73ffffffffffffffffffffffffffffffffffffffff16145b806114aa57506114a98185610fdb565b5b91505092915050565b8273ffffffffffffffffffffffffffffffffffffffff166114d38261099d565b73ffffffffffffffffffffffffffffffffffffffff1614611529576040517f08c379a000000000000000000000000000000000000000000000000000000000815260040161152090613060565b60405180910390fd5b600073ffffffffffffffffffffffffffffffffffffffff168273ffffffffffffffffffffffffffffffffffffffff161415611599576040517f08c379a0000000000000000000000000000000000000000000000000000000008152600401611590906130f2565b60405180910390fd5b6115a4838383611b7f565b6115af60008261131c565b6001600360008573ffffffffffffffffffffffffffffffffffffffff1673ffffffffffffffffffffffffffffffffffffffff16815260200190815260200160002060008282546115ff9190612c6b565b925050819055506001600360008473ffffffffffffffffffffffffffffffffffffffff1673ffffffffffffffffffffffffffffffffffffffff16815260200190815260200160002060008282546116569190613112565b92505081905550816002600083815260200190815260200160002060006101000a81548173ffffffffffffffffffffffffffffffffffffffff021916908373ffffffffffffffffffffffffffffffffffffffff160217905550808273ffffffffffffffffffffffffffffffffffffffff168473ffffffffffffffffffffffffffffffffffffffff167fddf252ad1be2c89b69c2b068fc378daa952ba7f163c4a11628f55a4df523b3ef60405160405180910390a4505050565b600061171a8261099d565b905061172881600084611b7f565b61173360008361131c565b6001600360008373ffffffffffffffffffffffffffffffffffffffff1673ffffffffffffffffffffffffffffffffffffffff16815260200190815260200160002060008282546117839190612c6b565b925050819055506002600083815260200190815260200160002060006101000a81549073ffffffffffffffffffffffffffffffffffffffff021916905581600073ffffffffffffffffffffffffffffffffffffffff168273ffffffffffffffffffffffffffffffffffffffff167fddf252ad1be2c89b69c2b068fc378daa952ba7f163c4a11628f55a4df523b3ef60405160405180910390a45050565b8173ffffffffffffffffffffffffffffffffffffffff168373ffffffffffffffffffffffffffffffffffffffff16141561188f576040517f08c379a0000000000000000000000000000000000000000000000000000000008152600401611886906131b4565b60405180910390fd5b80600560008573ffffffffffffffffffffffffffffffffffffffff1673ffffffffffffffffffffffffffffffffffffffff16815260200190815260200160002060008473ffffffffffffffffffffffffffffffffffffffff1673ffffffffffffffffffffffffffffffffffffffff16815260200190815260200160002060006101000a81548160ff0219169083151502179055508173ffffffffffffffffffffffffffffffffffffffff168373ffffffffffffffffffffffffffffffffffffffff167f17307eab39ab6107e8899845ad3d59bd9653f200f220920489ca2b5937696c3183604051611980919061212b565b60405180910390a3505050565b6119988484846114b3565b6119a484848484611b84565b6119e3576040517f08c379a00000000000000000000000000000000000000000000000000000000081526004016119da90613246565b60405180910390fd5b50505050565b606060405180602001604052806000815250905090565b60606000821415611a48576040518060400160405280600181526020017f30000000000000000000000000000000000000000000000000000000000000008152509050611b5c565b600082905060005b60008214611a7a578080611a6390612f13565b915050600a82611a739190613295565b9150611a50565b60008167ffffffffffffffff811115611a9657611a9561252c565b5b6040519080825280601f01601f191660200182016040528015611ac85781602001600182028036833780820191505090505b5090505b60008514611b5557600182611ae19190612c6b565b9150600a85611af091906132c6565b6030611afc9190613112565b60f81b818381518110611b1257611b11612c9f565b5b60200101907effffffffffffffffffffffffffffffffffffffffffffffffffffffffffffff1916908160001a905350600a85611b4e9190613295565b9450611acc565b8093505050505b919050565b611b7b828260405180602001604052806000815250611d0c565b5050565b505050565b6000611ba58473ffffffffffffffffffffffffffffffffffffffff16611d67565b15611cff578373ffffffffffffffffffffffffffffffffffffffff1663150b7a02611bce611314565b8786866040518563ffffffff1660e01b8152600401611bf0949392919061334c565b6020604051808303816000875af1925050508015611c2c57506040513d601f19601f82011682018060405250810190611c2991906133ad565b60015b611caf573d8060008114611c5c576040519150601f19603f3d011682016040523d82523d6000602084013e611c61565b606091505b50600081511415611ca7576040517f08c379a0000000000000000000000000000000000000000000000000000000008152600401611c9e90613246565b60405180910390fd5b805181602001fd5b63150b7a0260e01b7bffffffffffffffffffffffffffffffffffffffffffffffffffffffff1916817bffffffffffffffffffffffffffffffffffffffffffffffffffffffff191614915050611d04565b600190505b949350505050565b611d168383611d7a565b611d236000848484611b84565b611d62576040517f08c379a0000000000000000000000000000000000000000000000000000000008152600401611d5990613246565b60405180910390fd5b505050565b600080823b905060008111915050919050565b600073ffffffffffffffffffffffffffffffffffffffff168273ffffffffffffffffffffffffffffffffffffffff161415611dea576040517f08c379a0000000000000000000000000000000000000000000000000000000008152600401611de190613426565b60405180910390fd5b611df3816112a8565b15611e33576040517f08c379a0000000000000000000000000000000000000000000000000000000008152600401611e2a90613492565b60405180910390fd5b611e3f60008383611b7f565b6001600360008473ffffffffffffffffffffffffffffffffffffffff1673ffffffffffffffffffffffffffffffffffffffff1681526020019081526020016000206000828254611e8f9190613112565b92505081905550816002600083815260200190815260200160002060006101000a81548173ffffffffffffffffffffffffffffffffffffffff021916908373ffffffffffffffffffffffffffffffffffffffff160217905550808273ffffffffffffffffffffffffffffffffffffffff16600073ffffffffffffffffffffffffffffffffffffffff167fddf252ad1be2c89b69c2b068fc378daa952ba7f163c4a11628f55a4df523b3ef60405160405180910390a45050565b508054611f5490612980565b6000825580601f10611f665750611f85565b601f016020900490600052602060002090810190611f84919061205a565b5b50565b6040518060c00160405280600073ffffffffffffffffffffffffffffffffffffffff16815260200160608152602001606081526020016000815260200160008152602001600081525090565b828054611fe090612980565b90600052602060002090601f0160209004810192826120025760008555612049565b82601f1061201b57805160ff1916838001178555612049565b82800160010185558215612049579182015b8281111561204857825182559160200191906001019061202d565b5b509050612056919061205a565b5090565b5b8082111561207357600081600090555060010161205b565b5090565b6000604051905090565b600080fd5b600080fd5b60007fffffffff0000000000000000000000000000000000000000000000000000000082169050919050565b6120c08161208b565b81146120cb57600080fd5b50565b6000813590506120dd816120b7565b92915050565b6000602082840312156120f9576120f8612081565b5b6000612107848285016120ce565b91505092915050565b60008115159050919050565b61212581612110565b82525050565b6000602082019050612140600083018461211c565b92915050565b600081519050919050565b600082825260208201905092915050565b60005b83811015612180578082015181840152602081019050612165565b8381111561218f576000848401525b50505050565b6000601f19601f8301169050919050565b60006121b182612146565b6121bb8185612151565b93506121cb818560208601612162565b6121d481612195565b840191505092915050565b600060208201905081810360008301526121f981846121a6565b905092915050565b6000819050919050565b61221481612201565b811461221f57600080fd5b50565b6000813590506122318161220b565b92915050565b60006020828403121561224d5761224c612081565b5b600061225b84828501612222565b91505092915050565b600073ffffffffffffffffffffffffffffffffffffffff82169050919050565b600061228f82612264565b9050919050565b61229f81612284565b82525050565b60006020820190506122ba6000830184612296565b92915050565b6122c981612284565b81146122d457600080fd5b50565b6000813590506122e6816122c0565b92915050565b6000806040838503121561230357612302612081565b5b6000612311858286016122d7565b925050602061232285828601612222565b9150509250929050565b60008060006060848603121561234557612344612081565b5b6000612353868287016122d7565b9350506020612364868287016122d7565b925050604061237586828701612222565b9150509250925092565b60006020828403121561239557612394612081565b5b60006123a3848285016122d7565b91505092915050565b6123b581612201565b82525050565b60006020820190506123d060008301846123ac565b92915050565b6123df81612110565b81146123ea57600080fd5b50565b6000813590506123fc816123d6565b92915050565b6000806040838503121561241957612418612081565b5b6000612427858286016122d7565b9250506020612438858286016123ed565b9150509250929050565b600081519050919050565b600082825260208201905092915050565b6000819050602082019050919050565b61247781612201565b82525050565b6000612489838361246e565b60208301905092915050565b6000602082019050919050565b60006124ad82612442565b6124b7818561244d565b93506124c28361245e565b8060005b838110156124f35781516124da888261247d565b97506124e583612495565b9250506001810190506124c6565b5085935050505092915050565b6000602082019050818103600083015261251a81846124a2565b905092915050565b600080fd5b600080fd5b7f4e487b7100000000000000000000000000000000000000000000000000000000600052604160045260246000fd5b61256482612195565b810181811067ffffffffffffffff821117156125835761258261252c565b5b80604052505050565b6000612596612077565b90506125a2828261255b565b919050565b600067ffffffffffffffff8211156125c2576125c161252c565b5b6125cb82612195565b9050602081019050919050565b82818337600083830152505050565b60006125fa6125f5846125a7565b61258c565b90508281526020810184848401111561261657612615612527565b5b6126218482856125d8565b509392505050565b600082601f83011261263e5761263d612522565b5b813561264e8482602086016125e7565b91505092915050565b6000806000806080858703121561267157612670612081565b5b600061267f878288016122d7565b9450506020612690878288016122d7565b93505060406126a187828801612222565b925050606085013567ffffffffffffffff8111156126c2576126c1612086565b5b6126ce87828801612629565b91505092959194509250565b6126e381612284565b82525050565b600082825260208201905092915050565b600061270582612146565b61270f81856126e9565b935061271f818560208601612162565b61272881612195565b840191505092915050565b600060c08301600083015161274b60008601826126da565b506020830151848203602086015261276382826126fa565b9150506040830151848203604086015261277d82826126fa565b9150506060830151612792606086018261246e565b5060808301516127a5608086018261246e565b5060a08301516127b860a086018261246e565b508091505092915050565b600060208201905081810360008301526127dd8184612733565b905092915050565b600080604083850312156127fc576127fb612081565b5b600061280a858286016122d7565b925050602061281b858286016122d7565b9150509250929050565b600067ffffffffffffffff8211156128405761283f61252c565b5b61284982612195565b9050602081019050919050565b600061286961286484612825565b61258c565b90508281526020810184848401111561288557612884612527565b5b6128908482856125d8565b509392505050565b600082601f8301126128ad576128ac612522565b5b81356128bd848260208601612856565b91505092915050565b6000806000606084860312156128df576128de612081565b5b600084013567ffffffffffffffff8111156128fd576128fc612086565b5b61290986828701612898565b935050602084013567ffffffffffffffff81111561292a57612929612086565b5b61293686828701612898565b925050604061294786828701612222565b9150509250925092565b7f4e487b7100000000000000000000000000000000000000000000000000000000600052602260045260246000fd5b6000600282049050600182168061299857607f821691505b602082108114156129ac576129ab612951565b5b50919050565b7f4552433732313a20617070726f76656420717565727920666f72206e6f6e657860008201527f697374656e7420746f6b656e0000000000000000000000000000000000000000602082015250565b6000612a0e602c83612151565b9150612a19826129b2565b604082019050919050565b60006020820190508181036000830152612a3d81612a01565b9050919050565b7f4552433732313a20617070726f76616c20746f2063757272656e74206f776e6560008201527f7200000000000000000000000000000000000000000000000000000000000000602082015250565b6000612aa0602183612151565b9150612aab82612a44565b604082019050919050565b60006020820190508181036000830152612acf81612a93565b9050919050565b7f4552433732313a20617070726f76652063616c6c6572206973206e6f74206f7760008201527f6e6572206e6f7220617070726f76656420666f7220616c6c0000000000000000602082015250565b6000612b32603883612151565b9150612b3d82612ad6565b604082019050919050565b60006020820190508181036000830152612b6181612b25565b9050919050565b7f4552433732313a207472616e736665722063616c6c6572206973206e6f74206f60008201527f776e6572206e6f7220617070726f766564000000000000000000000000000000602082015250565b6000612bc4603183612151565b9150612bcf82612b68565b604082019050919050565b60006020820190508181036000830152612bf381612bb7565b9050919050565b600081519050612c098161220b565b92915050565b600060208284031215612c2557612c24612081565b5b6000612c3384828501612bfa565b91505092915050565b7f4e487b7100000000000000000000000000000000000000000000000000000000600052601160045260246000fd5b6000612c7682612201565b9150612c8183612201565b925082821015612c9457612c93612c3c565b5b828203905092915050565b7f4e487b7100000000000000000000000000000000000000000000000000000000600052603260045260246000fd5b7f4e487b7100000000000000000000000000000000000000000000000000000000600052603160045260246000fd5b7f4552433732313a206f776e657220717565727920666f72206e6f6e657869737460008201527f656e7420746f6b656e0000000000000000000000000000000000000000000000602082015250565b6000612d59602983612151565b9150612d6482612cfd565b604082019050919050565b60006020820190508181036000830152612d8881612d4c565b9050919050565b7f4552433732313a2062616c616e636520717565727920666f7220746865207a6560008201527f726f206164647265737300000000000000000000000000000000000000000000602082015250565b6000612deb602a83612151565b9150612df682612d8f565b604082019050919050565b60006020820190508181036000830152612e1a81612dde565b9050919050565b7f4552433732314d657461646174613a2055524920717565727920666f72206e6f60008201527f6e6578697374656e7420746f6b656e0000000000000000000000000000000000602082015250565b6000612e7d602f83612151565b9150612e8882612e21565b604082019050919050565b60006020820190508181036000830152612eac81612e70565b9050919050565b600081905092915050565b6000612ec982612146565b612ed38185612eb3565b9350612ee3818560208601612162565b80840191505092915050565b6000612efb8285612ebe565b9150612f078284612ebe565b91508190509392505050565b6000612f1e82612201565b91507fffffffffffffffffffffffffffffffffffffffffffffffffffffffffffffffff821415612f5157612f50612c3c565b5b600182019050919050565b7f4552433732313a206f70657261746f7220717565727920666f72206e6f6e657860008201527f697374656e7420746f6b656e0000000000000000000000000000000000000000602082015250565b6000612fb8602c83612151565b9150612fc382612f5c565b604082019050919050565b60006020820190508181036000830152612fe781612fab565b9050919050565b7f4552433732313a207472616e73666572206f6620746f6b656e2074686174206960008201527f73206e6f74206f776e0000000000000000000000000000000000000000000000602082015250565b600061304a602983612151565b915061305582612fee565b604082019050919050565b600060208201905081810360008301526130798161303d565b9050919050565b7f4552433732313a207472616e7366657220746f20746865207a65726f2061646460008201527f7265737300000000000000000000000000000000000000000000000000000000602082015250565b60006130dc602483612151565b91506130e782613080565b604082019050919050565b6000602082019050818103600083015261310b816130cf565b9050919050565b600061311d82612201565b915061312883612201565b9250827fffffffffffffffffffffffffffffffffffffffffffffffffffffffffffffffff0382111561315d5761315c612c3c565b5b828201905092915050565b7f4552433732313a20617070726f766520746f2063616c6c657200000000000000600082015250565b600061319e601983612151565b91506131a982613168565b602082019050919050565b600060208201905081810360008301526131cd81613191565b9050919050565b7f4552433732313a207472616e7366657220746f206e6f6e20455243373231526560008201527f63656976657220696d706c656d656e7465720000000000000000000000000000602082015250565b6000613230603283612151565b915061323b826131d4565b604082019050919050565b6000602082019050818103600083015261325f81613223565b9050919050565b7f4e487b7100000000000000000000000000000000000000000000000000000000600052601260045260246000fd5b60006132a082612201565b91506132ab83612201565b9250826132bb576132ba613266565b5b828204905092915050565b60006132d182612201565b91506132dc83612201565b9250826132ec576132eb613266565b5b828206905092915050565b600081519050919050565b600082825260208201905092915050565b600061331e826132f7565b6133288185613302565b9350613338818560208601612162565b61334181612195565b840191505092915050565b60006080820190506133616000830187612296565b61336e6020830186612296565b61337b60408301856123ac565b818103606083015261338d8184613313565b905095945050505050565b6000815190506133a7816120b7565b92915050565b6000602082840312156133c3576133c2612081565b5b60006133d184828501613398565b91505092915050565b7f4552433732313a206d696e7420746f20746865207a65726f2061646472657373600082015250565b6000613410602083612151565b915061341b826133da565b602082019050919050565b6000602082019050818103600083015261343f81613403565b9050919050565b7f4552433732313a20746f6b656e20616c7265616479206d696e74656400000000600082015250565b600061347c601c83612151565b915061348782613446565b602082019050919050565b600060208201905081810360008301526134ab8161346f565b905091905056fea26469706673582212204d6d7374a654da287e065b5956b689a7e50a09ae0942acf42d4be6a52869486164736f6c634300080a0033",
  "immutableReferences": {},
  "source": "// SPDX-License-Identifier: MIT\npragma solidity 0.8.10;\n\nimport \"@openzeppelin/contracts/access/Ownable.sol\";\nimport \"@openzeppelin/contracts/token/ERC721/ERC721.sol\";\n\n\nstruct Server {\n    address owner;\n    string name;\n    string ip;\n    uint port;\n\n    uint _time;\n    uint _index;\n}\n\n\ncontract PlayerAuth is ERC721 {\n    uint _total;\n\n    constructor() ERC721(\"Player Auth\", \"AUTH\") {\n    }\n\n\n    function Register() external returns (uint) {\n        require(balanceOf(msg.sender) == 0);\n        _total += 1;\n        _safeMint(msg.sender, _total);\n        return _total;\n    } \n\n\n    function _beforeTokenTransfer(\n        address from,\n        address, //to,\n        uint256 //tokenId\n    ) internal pure override {\n        require(from == address(0));\n    }\n}\n\n\ncontract LobbyServer is ERC721 {\n    uint _total;\n\n    PlayerAuth _playerAuth;\n    mapping(uint => Server) _servers;\n    uint[] _serverIDs;\n\n    constructor(PlayerAuth playerAuth) ERC721(\"Server\", \"SERVER\") {\n        _playerAuth = playerAuth;\n    }\n\n    modifier authed () {\n        require(_playerAuth.balanceOf(msg.sender) == 1);\n        _;\n    }\n\n    function RegisterServer(string memory name, string memory ip, uint port) external authed returns (uint) {\n        require(balanceOf(msg.sender) == 0);\n\n        uint id = ++_total;\n        Server storage server = _servers[id];\n        _serverIDs.push(id);\n        _safeMint(msg.sender, id);\n\n        server.owner = msg.sender;\n        server.name = name;\n        server.ip = ip;\n        server.port = port;\n\n        server._index = _serverIDs.length - 1;\n        server._time = block.timestamp;\n\n        return id;\n    }\n\n\n    function RemoveServer(uint id) external authed {\n        require (balanceOf(msg.sender) == 0);\n        require (ownerOf(id) == msg.sender);\n\n        // Get the array index\n        uint _index = _servers[id]._index;\n        // Put the last element into that slot\n        _serverIDs[_index] = _serverIDs[_serverIDs.length - 1];\n        // Delete the last element\n        _serverIDs.pop();\n\n        // Update the array index of the serverid that got moved\n        uint movedId = _serverIDs[_index];\n        _servers[movedId]._index = _index;\n\n        // Delete the actual server entry\n        delete _servers[id];\n\n        // Burn the server NFT\n        _burn(id);\n    }\n\n\n    function KeepAlive(uint id) external authed {\n        require (ownerOf(id) == msg.sender);\n        _servers[id]._time = block.timestamp;\n    }\n\n\n    function ServerList() external view returns (uint[] memory) {\n        return _serverIDs;\n    }\n\n\n    function GetServer(uint id) external view returns (Server memory) {\n        return _servers[id];\n    }\n}\n",
  "sourcePath": "/home/davidg/Documents/Ethereum/LobbyServer/contracts/Lobby.sol",
  "compiler": {
    "name": "solc",
    "version": "0.8.10+commit.fc410830.Emscripten.clang"
  },
  "schemaVersion": "3.4.3",
  "updatedAt": "2022-01-24T22:33:38.155Z",
  "devdoc": {
    "kind": "dev",
    "methods": {
      "approve(address,uint256)": {
        "details": "See {IERC721-approve}."
      },
      "balanceOf(address)": {
        "details": "See {IERC721-balanceOf}."
      },
      "getApproved(uint256)": {
        "details": "See {IERC721-getApproved}."
      },
      "isApprovedForAll(address,address)": {
        "details": "See {IERC721-isApprovedForAll}."
      },
      "name()": {
        "details": "See {IERC721Metadata-name}."
      },
      "ownerOf(uint256)": {
        "details": "See {IERC721-ownerOf}."
      },
      "safeTransferFrom(address,address,uint256)": {
        "details": "See {IERC721-safeTransferFrom}."
      },
      "safeTransferFrom(address,address,uint256,bytes)": {
        "details": "See {IERC721-safeTransferFrom}."
      },
      "setApprovalForAll(address,bool)": {
        "details": "See {IERC721-setApprovalForAll}."
      },
      "supportsInterface(bytes4)": {
        "details": "See {IERC165-supportsInterface}."
      },
      "symbol()": {
        "details": "See {IERC721Metadata-symbol}."
      },
      "tokenURI(uint256)": {
        "details": "See {IERC721Metadata-tokenURI}."
      },
      "transferFrom(address,address,uint256)": {
        "details": "See {IERC721-transferFrom}."
      }
    },
    "version": 1
  },
  "userdoc": {
    "kind": "user",
    "methods": {},
    "version": 1
  }
}