{
  "contractName": "NodeRegistry",
  "abi": [
    {
      "inputs": [
        {
          "internalType": "contract UserAuth",
          "name": "playerAuth",
          "type": "address"
        }
      ],
      "stateMutability": "nonpayable",
      "type": "constructor"
    },
    {
      "anonymous": false,
      "inputs": [
        {
          "indexed": true,
          "internalType": "address",
          "name": "owner",
          "type": "address"
        },
        {
          "indexed": true,
          "internalType": "address",
          "name": "approved",
          "type": "address"
        },
        {
          "indexed": true,
          "internalType": "uint256",
          "name": "tokenId",
          "type": "uint256"
        }
      ],
      "name": "Approval",
      "type": "event"
    },
    {
      "anonymous": false,
      "inputs": [
        {
          "indexed": true,
          "internalType": "address",
          "name": "owner",
          "type": "address"
        },
        {
          "indexed": true,
          "internalType": "address",
          "name": "operator",
          "type": "address"
        },
        {
          "indexed": false,
          "internalType": "bool",
          "name": "approved",
          "type": "bool"
        }
      ],
      "name": "ApprovalForAll",
      "type": "event"
    },
    {
      "anonymous": false,
      "inputs": [
        {
          "indexed": true,
          "internalType": "uint256",
          "name": "id",
          "type": "uint256"
        }
      ],
      "name": "NodeAdded",
      "type": "event"
    },
    {
      "anonymous": false,
      "inputs": [
        {
          "indexed": true,
          "internalType": "uint256",
          "name": "id",
          "type": "uint256"
        }
      ],
      "name": "NodeRemoved",
      "type": "event"
    },
    {
      "anonymous": false,
      "inputs": [
        {
          "indexed": true,
          "internalType": "address",
          "name": "from",
          "type": "address"
        },
        {
          "indexed": true,
          "internalType": "address",
          "name": "to",
          "type": "address"
        },
        {
          "indexed": true,
          "internalType": "uint256",
          "name": "tokenId",
          "type": "uint256"
        }
      ],
      "name": "Transfer",
      "type": "event"
    },
    {
      "inputs": [
        {
          "internalType": "address",
          "name": "to",
          "type": "address"
        },
        {
          "internalType": "uint256",
          "name": "tokenId",
          "type": "uint256"
        }
      ],
      "name": "approve",
      "outputs": [],
      "stateMutability": "nonpayable",
      "type": "function"
    },
    {
      "inputs": [
        {
          "internalType": "address",
          "name": "owner",
          "type": "address"
        }
      ],
      "name": "balanceOf",
      "outputs": [
        {
          "internalType": "uint256",
          "name": "",
          "type": "uint256"
        }
      ],
      "stateMutability": "view",
      "type": "function",
      "constant": true
    },
    {
      "inputs": [
        {
          "internalType": "uint256",
          "name": "tokenId",
          "type": "uint256"
        }
      ],
      "name": "getApproved",
      "outputs": [
        {
          "internalType": "address",
          "name": "",
          "type": "address"
        }
      ],
      "stateMutability": "view",
      "type": "function",
      "constant": true
    },
    {
      "inputs": [
        {
          "internalType": "address",
          "name": "owner",
          "type": "address"
        },
        {
          "internalType": "address",
          "name": "operator",
          "type": "address"
        }
      ],
      "name": "isApprovedForAll",
      "outputs": [
        {
          "internalType": "bool",
          "name": "",
          "type": "bool"
        }
      ],
      "stateMutability": "view",
      "type": "function",
      "constant": true
    },
    {
      "inputs": [],
      "name": "name",
      "outputs": [
        {
          "internalType": "string",
          "name": "",
          "type": "string"
        }
      ],
      "stateMutability": "view",
      "type": "function",
      "constant": true
    },
    {
      "inputs": [
        {
          "internalType": "uint256",
          "name": "tokenId",
          "type": "uint256"
        }
      ],
      "name": "ownerOf",
      "outputs": [
        {
          "internalType": "address",
          "name": "",
          "type": "address"
        }
      ],
      "stateMutability": "view",
      "type": "function",
      "constant": true
    },
    {
      "inputs": [
        {
          "internalType": "address",
          "name": "from",
          "type": "address"
        },
        {
          "internalType": "address",
          "name": "to",
          "type": "address"
        },
        {
          "internalType": "uint256",
          "name": "tokenId",
          "type": "uint256"
        }
      ],
      "name": "safeTransferFrom",
      "outputs": [],
      "stateMutability": "nonpayable",
      "type": "function"
    },
    {
      "inputs": [
        {
          "internalType": "address",
          "name": "from",
          "type": "address"
        },
        {
          "internalType": "address",
          "name": "to",
          "type": "address"
        },
        {
          "internalType": "uint256",
          "name": "tokenId",
          "type": "uint256"
        },
        {
          "internalType": "bytes",
          "name": "_data",
          "type": "bytes"
        }
      ],
      "name": "safeTransferFrom",
      "outputs": [],
      "stateMutability": "nonpayable",
      "type": "function"
    },
    {
      "inputs": [
        {
          "internalType": "address",
          "name": "operator",
          "type": "address"
        },
        {
          "internalType": "bool",
          "name": "approved",
          "type": "bool"
        }
      ],
      "name": "setApprovalForAll",
      "outputs": [],
      "stateMutability": "nonpayable",
      "type": "function"
    },
    {
      "inputs": [
        {
          "internalType": "bytes4",
          "name": "interfaceId",
          "type": "bytes4"
        }
      ],
      "name": "supportsInterface",
      "outputs": [
        {
          "internalType": "bool",
          "name": "",
          "type": "bool"
        }
      ],
      "stateMutability": "view",
      "type": "function",
      "constant": true
    },
    {
      "inputs": [],
      "name": "symbol",
      "outputs": [
        {
          "internalType": "string",
          "name": "",
          "type": "string"
        }
      ],
      "stateMutability": "view",
      "type": "function",
      "constant": true
    },
    {
      "inputs": [
        {
          "internalType": "uint256",
          "name": "tokenId",
          "type": "uint256"
        }
      ],
      "name": "tokenURI",
      "outputs": [
        {
          "internalType": "string",
          "name": "",
          "type": "string"
        }
      ],
      "stateMutability": "view",
      "type": "function",
      "constant": true
    },
    {
      "inputs": [
        {
          "internalType": "address",
          "name": "from",
          "type": "address"
        },
        {
          "internalType": "address",
          "name": "to",
          "type": "address"
        },
        {
          "internalType": "uint256",
          "name": "tokenId",
          "type": "uint256"
        }
      ],
      "name": "transferFrom",
      "outputs": [],
      "stateMutability": "nonpayable",
      "type": "function"
    },
    {
      "inputs": [
        {
          "internalType": "string",
          "name": "name",
          "type": "string"
        },
        {
          "internalType": "string",
          "name": "ip",
          "type": "string"
        },
        {
          "internalType": "uint256",
          "name": "port",
          "type": "uint256"
        }
      ],
      "name": "RegisterNode",
      "outputs": [
        {
          "internalType": "uint256",
          "name": "",
          "type": "uint256"
        }
      ],
      "stateMutability": "nonpayable",
      "type": "function"
    },
    {
      "inputs": [
        {
          "internalType": "uint256",
          "name": "id",
          "type": "uint256"
        }
      ],
      "name": "RemoveNode",
      "outputs": [],
      "stateMutability": "nonpayable",
      "type": "function"
    },
    {
      "inputs": [
        {
          "internalType": "uint256",
          "name": "id",
          "type": "uint256"
        }
      ],
      "name": "KeepAlive",
      "outputs": [],
      "stateMutability": "nonpayable",
      "type": "function"
    },
    {
      "inputs": [],
      "name": "NodeIdList",
      "outputs": [
        {
          "internalType": "uint256[]",
          "name": "",
          "type": "uint256[]"
        }
      ],
      "stateMutability": "view",
      "type": "function",
      "constant": true
    },
    {
      "inputs": [],
      "name": "NodeList",
      "outputs": [
        {
          "components": [
            {
              "internalType": "uint256",
              "name": "id",
              "type": "uint256"
            },
            {
              "internalType": "address",
              "name": "owner",
              "type": "address"
            },
            {
              "internalType": "string",
              "name": "name",
              "type": "string"
            },
            {
              "internalType": "string",
              "name": "ip",
              "type": "string"
            },
            {
              "internalType": "uint256",
              "name": "port",
              "type": "uint256"
            },
            {
              "internalType": "uint256",
              "name": "_time",
              "type": "uint256"
            },
            {
              "internalType": "uint256",
              "name": "_index",
              "type": "uint256"
            }
          ],
          "internalType": "struct Node[]",
          "name": "",
          "type": "tuple[]"
        }
      ],
      "stateMutability": "view",
      "type": "function",
      "constant": true
    },
    {
      "inputs": [
        {
          "internalType": "uint256",
          "name": "id",
          "type": "uint256"
        }
      ],
      "name": "GetNode",
      "outputs": [
        {
          "components": [
            {
              "internalType": "uint256",
              "name": "id",
              "type": "uint256"
            },
            {
              "internalType": "address",
              "name": "owner",
              "type": "address"
            },
            {
              "internalType": "string",
              "name": "name",
              "type": "string"
            },
            {
              "internalType": "string",
              "name": "ip",
              "type": "string"
            },
            {
              "internalType": "uint256",
              "name": "port",
              "type": "uint256"
            },
            {
              "internalType": "uint256",
              "name": "_time",
              "type": "uint256"
            },
            {
              "internalType": "uint256",
              "name": "_index",
              "type": "uint256"
            }
          ],
          "internalType": "struct Node",
          "name": "",
          "type": "tuple"
        }
      ],
      "stateMutability": "view",
      "type": "function",
      "constant": true
    },
    {
      "inputs": [
        {
          "internalType": "uint256",
          "name": "nodeid",
          "type": "uint256"
        },
        {
          "internalType": "string",
          "name": "key",
          "type": "string"
        },
        {
          "internalType": "string",
          "name": "value",
          "type": "string"
        }
      ],
      "name": "SetMetadata_String",
      "outputs": [],
      "stateMutability": "nonpayable",
      "type": "function"
    },
    {
      "inputs": [
        {
          "internalType": "uint256",
          "name": "nodeid",
          "type": "uint256"
        },
        {
          "internalType": "string",
          "name": "key",
          "type": "string"
        }
      ],
      "name": "GetMetadata_String",
      "outputs": [
        {
          "internalType": "string",
          "name": "",
          "type": "string"
        }
      ],
      "stateMutability": "view",
      "type": "function",
      "constant": true
    },
    {
      "inputs": [
        {
          "internalType": "uint256",
          "name": "nodeid",
          "type": "uint256"
        },
        {
          "internalType": "string",
          "name": "key",
          "type": "string"
        },
        {
          "internalType": "int256",
          "name": "value",
          "type": "int256"
        }
      ],
      "name": "SetMetadata_Int",
      "outputs": [],
      "stateMutability": "nonpayable",
      "type": "function"
    },
    {
      "inputs": [
        {
          "internalType": "uint256",
          "name": "nodeid",
          "type": "uint256"
        },
        {
          "internalType": "string",
          "name": "key",
          "type": "string"
        }
      ],
      "name": "GetMetadata_Int",
      "outputs": [
        {
          "internalType": "int256",
          "name": "",
          "type": "int256"
        }
      ],
      "stateMutability": "view",
      "type": "function",
      "constant": true
    }
  ],
  "bytecode": "0x60806040523480156200001157600080fd5b506040516200414e3803806200414e83398181016040528101906200003791906200024d565b6040518060400160405280600b81526020017f4d6574486578204e6f64650000000000000000000000000000000000000000008152506040518060400160405280600b81526020017f4d45544845582d4e4f44450000000000000000000000000000000000000000008152508160009080519060200190620000bb9291906200011f565b508060019080519060200190620000d49291906200011f565b50505080600760006101000a81548173ffffffffffffffffffffffffffffffffffffffff021916908373ffffffffffffffffffffffffffffffffffffffff16021790555050620002e4565b8280546200012d90620002ae565b90600052602060002090601f0160209004810192826200015157600085556200019d565b82601f106200016c57805160ff19168380011785556200019d565b828001600101855582156200019d579182015b828111156200019c5782518255916020019190600101906200017f565b5b509050620001ac9190620001b0565b5090565b5b80821115620001cb576000816000905550600101620001b1565b5090565b600080fd5b600073ffffffffffffffffffffffffffffffffffffffff82169050919050565b60006200020182620001d4565b9050919050565b60006200021582620001f4565b9050919050565b620002278162000208565b81146200023357600080fd5b50565b60008151905062000247816200021c565b92915050565b600060208284031215620002665762000265620001cf565b5b6000620002768482850162000236565b91505092915050565b7f4e487b7100000000000000000000000000000000000000000000000000000000600052602260045260246000fd5b60006002820490506001821680620002c757607f821691505b60208210811415620002de57620002dd6200027f565b5b50919050565b613e5a80620002f46000396000f3fe608060405234801561001057600080fd5b506004361061014d5760003560e01c80636b7c9d05116100c3578063a22cb4651161007c578063a22cb465146103ae578063b0a8370b146103ca578063b88d4fde146103fa578063c87b56dd14610416578063e0010dae14610446578063e985e9c5146104765761014d565b80636b7c9d05146102ec57806370a082311461030a57806374dc37f81461033a57806395d89b41146103565780639947b6bf146103745780639bfdab85146103905761014d565b806321eb98091161011557806321eb98091461020857806323b872dd146102245780632a0f759a1461024057806341fe2c691461027057806342842e0e146102a05780636352211e146102bc5761014d565b806301ffc9a714610152578063063018f21461018257806306fdde031461019e578063081812fc146101bc578063095ea7b3146101ec575b600080fd5b61016c60048036038101906101679190612659565b6104a6565b60405161017991906126a1565b60405180910390f35b61019c60048036038101906101979190612898565b610588565b005b6101a66105d7565b6040516101b391906129b0565b60405180910390f35b6101d660048036038101906101d191906129d2565b610669565b6040516101e39190612a40565b60405180910390f35b61020660048036038101906102019190612a87565b6106ee565b005b610222600480360381019061021d9190612afd565b610806565b005b61023e60048036038101906102399190612b71565b610845565b005b61025a60048036038101906102559190612bc4565b6108a5565b6040516102679190612c5e565b60405180910390f35b61028a600480360381019061028591906129d2565b610aaa565b6040516102979190612d84565b60405180910390f35b6102ba60048036038101906102b59190612b71565b610c79565b005b6102d660048036038101906102d191906129d2565b610c99565b6040516102e39190612a40565b60405180910390f35b6102f4610d4b565b6040516103019190612f0b565b60405180910390f35b610324600480360381019061031f9190612f2d565b610fd7565b6040516103319190612c5e565b60405180910390f35b610354600480360381019061034f91906129d2565b61108f565b005b61035e611302565b60405161036b91906129b0565b60405180910390f35b61038e600480360381019061038991906129d2565b611394565b005b61039861149a565b6040516103a59190613009565b60405180910390f35b6103c860048036038101906103c39190613057565b6114f2565b005b6103e460048036038101906103df9190613097565b611508565b6040516103f191906129b0565b60405180910390f35b610414600480360381019061040f9190613198565b6115d0565b005b610430600480360381019061042b91906129d2565b611632565b60405161043d91906129b0565b60405180910390f35b610460600480360381019061045b9190613097565b6116d9565b60405161046d919061322a565b60405180910390f35b610490600480360381019061048b9190613245565b611719565b60405161049d91906126a1565b60405180910390f35b60007f80ac58cd000000000000000000000000000000000000000000000000000000007bffffffffffffffffffffffffffffffffffffffffffffffffffffffff1916827bffffffffffffffffffffffffffffffffffffffffffffffffffffffff1916148061057157507f5b5e139f000000000000000000000000000000000000000000000000000000007bffffffffffffffffffffffffffffffffffffffffffffffffffffffff1916827bffffffffffffffffffffffffffffffffffffffffffffffffffffffff1916145b806105815750610580826117ad565b5b9050919050565b806009600086815260200190815260200160002060000184846040516105af9291906132b5565b908152602001604051809103902090805190602001906105d09291906124b7565b5050505050565b6060600080546105e6906132fd565b80601f0160208091040260200160405190810160405280929190818152602001828054610612906132fd565b801561065f5780601f106106345761010080835404028352916020019161065f565b820191906000526020600020905b81548152906001019060200180831161064257829003601f168201915b5050505050905090565b600061067482611817565b6106b3576040517f08c379a00000000000000000000000000000000000000000000000000000000081526004016106aa906133a1565b60405180910390fd5b6004600083815260200190815260200160002060009054906101000a900473ffffffffffffffffffffffffffffffffffffffff169050919050565b60006106f982610c99565b90508073ffffffffffffffffffffffffffffffffffffffff168373ffffffffffffffffffffffffffffffffffffffff16141561076a576040517f08c379a000000000000000000000000000000000000000000000000000000000815260040161076190613433565b60405180910390fd5b8073ffffffffffffffffffffffffffffffffffffffff16610789611883565b73ffffffffffffffffffffffffffffffffffffffff1614806107b857506107b7816107b2611883565b611719565b5b6107f7576040517f08c379a00000000000000000000000000000000000000000000000000000000081526004016107ee906134c5565b60405180910390fd5b610801838361188b565b505050565b8060096000868152602001908152602001600020600101848460405161082d9291906132b5565b90815260200160405180910390208190555050505050565b610856610850611883565b82611944565b610895576040517f08c379a000000000000000000000000000000000000000000000000000000000815260040161088c90613557565b60405180910390fd5b6108a0838383611a22565b505050565b60006001600760009054906101000a900473ffffffffffffffffffffffffffffffffffffffff1673ffffffffffffffffffffffffffffffffffffffff166370a08231336040518263ffffffff1660e01b81526004016109049190612a40565b602060405180830381865afa158015610921573d6000803e3d6000fd5b505050506040513d601f19601f82011682018060405250810190610945919061358c565b1461094f57600080fd5b600061095a33610fd7565b1461096457600080fd5b6000600660008154610975906135e8565b91905081905590506000600860008381526020019081526020016000209050600a8290806001815401808255809150506001900390600052602060002001600090919091909150556109c73383611c7e565b818160000181905550338160010160006101000a81548173ffffffffffffffffffffffffffffffffffffffff021916908373ffffffffffffffffffffffffffffffffffffffff16021790555085816002019080519060200190610a2b9291906124b7565b5084816003019080519060200190610a449291906124b7565b508381600401819055506001600a80549050610a609190613631565b8160060181905550428160050181905550817f6d6c7890de6244cc4a4b2eba1686287aac49412a2f6c76007d085ff9cd8701ea60405160405180910390a281925050509392505050565b610ab261253d565b600860008381526020019081526020016000206040518060e0016040529081600082015481526020016001820160009054906101000a900473ffffffffffffffffffffffffffffffffffffffff1673ffffffffffffffffffffffffffffffffffffffff1673ffffffffffffffffffffffffffffffffffffffff168152602001600282018054610b40906132fd565b80601f0160208091040260200160405190810160405280929190818152602001828054610b6c906132fd565b8015610bb95780601f10610b8e57610100808354040283529160200191610bb9565b820191906000526020600020905b815481529060010190602001808311610b9c57829003601f168201915b50505050508152602001600382018054610bd2906132fd565b80601f0160208091040260200160405190810160405280929190818152602001828054610bfe906132fd565b8015610c4b5780601f10610c2057610100808354040283529160200191610c4b565b820191906000526020600020905b815481529060010190602001808311610c2e57829003601f168201915b5050505050815260200160048201548152602001600582015481526020016006820154815250509050919050565b610c94838383604051806020016040528060008152506115d0565b505050565b6000806002600084815260200190815260200160002060009054906101000a900473ffffffffffffffffffffffffffffffffffffffff169050600073ffffffffffffffffffffffffffffffffffffffff168173ffffffffffffffffffffffffffffffffffffffff161415610d42576040517f08c379a0000000000000000000000000000000000000000000000000000000008152600401610d39906136d7565b60405180910390fd5b80915050919050565b60606000600a80549050905060008167ffffffffffffffff811115610d7357610d7261276d565b5b604051908082528060200260200182016040528015610dac57816020015b610d9961253d565b815260200190600190039081610d915790505b50905060005b600a80549050811015610fce5760086000600a8381548110610dd757610dd66136f7565b5b906000526020600020015481526020019081526020016000206040518060e0016040529081600082015481526020016001820160009054906101000a900473ffffffffffffffffffffffffffffffffffffffff1673ffffffffffffffffffffffffffffffffffffffff1673ffffffffffffffffffffffffffffffffffffffff168152602001600282018054610e6b906132fd565b80601f0160208091040260200160405190810160405280929190818152602001828054610e97906132fd565b8015610ee45780601f10610eb957610100808354040283529160200191610ee4565b820191906000526020600020905b815481529060010190602001808311610ec757829003601f168201915b50505050508152602001600382018054610efd906132fd565b80601f0160208091040260200160405190810160405280929190818152602001828054610f29906132fd565b8015610f765780601f10610f4b57610100808354040283529160200191610f76565b820191906000526020600020905b815481529060010190602001808311610f5957829003601f168201915b505050505081526020016004820154815260200160058201548152602001600682015481525050828281518110610fb057610faf6136f7565b5b60200260200101819052508080610fc6906135e8565b915050610db2565b50809250505090565b60008073ffffffffffffffffffffffffffffffffffffffff168273ffffffffffffffffffffffffffffffffffffffff161415611048576040517f08c379a000000000000000000000000000000000000000000000000000000000815260040161103f90613798565b60405180910390fd5b600360008373ffffffffffffffffffffffffffffffffffffffff1673ffffffffffffffffffffffffffffffffffffffff168152602001908152602001600020549050919050565b6001600760009054906101000a900473ffffffffffffffffffffffffffffffffffffffff1673ffffffffffffffffffffffffffffffffffffffff166370a08231336040518263ffffffff1660e01b81526004016110ec9190612a40565b602060405180830381865afa158015611109573d6000803e3d6000fd5b505050506040513d601f19601f8201168201806040525081019061112d919061358c565b1461113757600080fd5b3373ffffffffffffffffffffffffffffffffffffffff1661115782610c99565b73ffffffffffffffffffffffffffffffffffffffff161461117757600080fd5b600060086000838152602001908152602001600020600601549050600a6001600a805490506111a69190613631565b815481106111b7576111b66136f7565b5b9060005260206000200154600a82815481106111d6576111d56136f7565b5b9060005260206000200181905550600a8054806111f6576111f56137b8565b5b600190038181906000526020600020016000905590556000600a8281548110611222576112216136f7565b5b90600052602060002001549050816008600083815260200190815260200160002060060181905550600860008481526020019081526020016000206000808201600090556001820160006101000a81549073ffffffffffffffffffffffffffffffffffffffff021916905560028201600061129d9190612590565b6003820160006112ad9190612590565b60048201600090556005820160009055600682016000905550506112d083611c9c565b827f2b61f53058df44855c08a7304979066cb409f86a3dca910e2275b9e85635d1f960405160405180910390a2505050565b606060018054611311906132fd565b80601f016020809104026020016040519081016040528092919081815260200182805461133d906132fd565b801561138a5780601f1061135f5761010080835404028352916020019161138a565b820191906000526020600020905b81548152906001019060200180831161136d57829003601f168201915b5050505050905090565b6001600760009054906101000a900473ffffffffffffffffffffffffffffffffffffffff1673ffffffffffffffffffffffffffffffffffffffff166370a08231336040518263ffffffff1660e01b81526004016113f19190612a40565b602060405180830381865afa15801561140e573d6000803e3d6000fd5b505050506040513d601f19601f82011682018060405250810190611432919061358c565b1461143c57600080fd5b3373ffffffffffffffffffffffffffffffffffffffff1661145c82610c99565b73ffffffffffffffffffffffffffffffffffffffff161461147c57600080fd5b42600860008381526020019081526020016000206005018190555050565b6060600a8054806020026020016040519081016040528092919081815260200182805480156114e857602002820191906000526020600020905b8154815260200190600101908083116114d4575b5050505050905090565b6115046114fd611883565b8383611dad565b5050565b60606009600085815260200190815260200160002060000183836040516115309291906132b5565b90815260200160405180910390208054611549906132fd565b80601f0160208091040260200160405190810160405280929190818152602001828054611575906132fd565b80156115c25780601f10611597576101008083540402835291602001916115c2565b820191906000526020600020905b8154815290600101906020018083116115a557829003601f168201915b505050505090509392505050565b6115e16115db611883565b83611944565b611620576040517f08c379a000000000000000000000000000000000000000000000000000000000815260040161161790613557565b60405180910390fd5b61162c84848484611f1a565b50505050565b606061163d82611817565b61167c576040517f08c379a000000000000000000000000000000000000000000000000000000000815260040161167390613859565b60405180910390fd5b6000611686611f76565b905060008151116116a657604051806020016040528060008152506116d1565b806116b084611f8d565b6040516020016116c19291906138aa565b6040516020818303038152906040525b915050919050565b60006009600085815260200190815260200160002060010183836040516117019291906132b5565b90815260200160405180910390205490509392505050565b6000600560008473ffffffffffffffffffffffffffffffffffffffff1673ffffffffffffffffffffffffffffffffffffffff16815260200190815260200160002060008373ffffffffffffffffffffffffffffffffffffffff1673ffffffffffffffffffffffffffffffffffffffff16815260200190815260200160002060009054906101000a900460ff16905092915050565b60007f01ffc9a7000000000000000000000000000000000000000000000000000000007bffffffffffffffffffffffffffffffffffffffffffffffffffffffff1916827bffffffffffffffffffffffffffffffffffffffffffffffffffffffff1916149050919050565b60008073ffffffffffffffffffffffffffffffffffffffff166002600084815260200190815260200160002060009054906101000a900473ffffffffffffffffffffffffffffffffffffffff1673ffffffffffffffffffffffffffffffffffffffff1614159050919050565b600033905090565b816004600083815260200190815260200160002060006101000a81548173ffffffffffffffffffffffffffffffffffffffff021916908373ffffffffffffffffffffffffffffffffffffffff160217905550808273ffffffffffffffffffffffffffffffffffffffff166118fe83610c99565b73ffffffffffffffffffffffffffffffffffffffff167f8c5be1e5ebec7d5bd14f71427d1e84f3dd0314c0f7b2291e5b200ac8c7c3b92560405160405180910390a45050565b600061194f82611817565b61198e576040517f08c379a000000000000000000000000000000000000000000000000000000000815260040161198590613940565b60405180910390fd5b600061199983610c99565b90508073ffffffffffffffffffffffffffffffffffffffff168473ffffffffffffffffffffffffffffffffffffffff161480611a0857508373ffffffffffffffffffffffffffffffffffffffff166119f084610669565b73ffffffffffffffffffffffffffffffffffffffff16145b80611a195750611a188185611719565b5b91505092915050565b8273ffffffffffffffffffffffffffffffffffffffff16611a4282610c99565b73ffffffffffffffffffffffffffffffffffffffff1614611a98576040517f08c379a0000000000000000000000000000000000000000000000000000000008152600401611a8f906139d2565b60405180910390fd5b600073ffffffffffffffffffffffffffffffffffffffff168273ffffffffffffffffffffffffffffffffffffffff161415611b08576040517f08c379a0000000000000000000000000000000000000000000000000000000008152600401611aff90613a64565b60405180910390fd5b611b138383836120ee565b611b1e60008261188b565b6001600360008573ffffffffffffffffffffffffffffffffffffffff1673ffffffffffffffffffffffffffffffffffffffff1681526020019081526020016000206000828254611b6e9190613631565b925050819055506001600360008473ffffffffffffffffffffffffffffffffffffffff1673ffffffffffffffffffffffffffffffffffffffff1681526020019081526020016000206000828254611bc59190613a84565b92505081905550816002600083815260200190815260200160002060006101000a81548173ffffffffffffffffffffffffffffffffffffffff021916908373ffffffffffffffffffffffffffffffffffffffff160217905550808273ffffffffffffffffffffffffffffffffffffffff168473ffffffffffffffffffffffffffffffffffffffff167fddf252ad1be2c89b69c2b068fc378daa952ba7f163c4a11628f55a4df523b3ef60405160405180910390a4505050565b611c988282604051806020016040528060008152506120f3565b5050565b6000611ca782610c99565b9050611cb5816000846120ee565b611cc060008361188b565b6001600360008373ffffffffffffffffffffffffffffffffffffffff1673ffffffffffffffffffffffffffffffffffffffff1681526020019081526020016000206000828254611d109190613631565b925050819055506002600083815260200190815260200160002060006101000a81549073ffffffffffffffffffffffffffffffffffffffff021916905581600073ffffffffffffffffffffffffffffffffffffffff168273ffffffffffffffffffffffffffffffffffffffff167fddf252ad1be2c89b69c2b068fc378daa952ba7f163c4a11628f55a4df523b3ef60405160405180910390a45050565b8173ffffffffffffffffffffffffffffffffffffffff168373ffffffffffffffffffffffffffffffffffffffff161415611e1c576040517f08c379a0000000000000000000000000000000000000000000000000000000008152600401611e1390613b26565b60405180910390fd5b80600560008573ffffffffffffffffffffffffffffffffffffffff1673ffffffffffffffffffffffffffffffffffffffff16815260200190815260200160002060008473ffffffffffffffffffffffffffffffffffffffff1673ffffffffffffffffffffffffffffffffffffffff16815260200190815260200160002060006101000a81548160ff0219169083151502179055508173ffffffffffffffffffffffffffffffffffffffff168373ffffffffffffffffffffffffffffffffffffffff167f17307eab39ab6107e8899845ad3d59bd9653f200f220920489ca2b5937696c3183604051611f0d91906126a1565b60405180910390a3505050565b611f25848484611a22565b611f318484848461214e565b611f70576040517f08c379a0000000000000000000000000000000000000000000000000000000008152600401611f6790613bb8565b60405180910390fd5b50505050565b606060405180602001604052806000815250905090565b60606000821415611fd5576040518060400160405280600181526020017f300000000000000000000000000000000000000000000000000000000000000081525090506120e9565b600082905060005b60008214612007578080611ff0906135e8565b915050600a826120009190613c07565b9150611fdd565b60008167ffffffffffffffff8111156120235761202261276d565b5b6040519080825280601f01601f1916602001820160405280156120555781602001600182028036833780820191505090505b5090505b600085146120e25760018261206e9190613631565b9150600a8561207d9190613c38565b60306120899190613a84565b60f81b81838151811061209f5761209e6136f7565b5b60200101907effffffffffffffffffffffffffffffffffffffffffffffffffffffffffffff1916908160001a905350600a856120db9190613c07565b9450612059565b8093505050505b919050565b505050565b6120fd83836122d6565b61210a600084848461214e565b612149576040517f08c379a000000000000000000000000000000000000000000000000000000000815260040161214090613bb8565b60405180910390fd5b505050565b600061216f8473ffffffffffffffffffffffffffffffffffffffff166124a4565b156122c9578373ffffffffffffffffffffffffffffffffffffffff1663150b7a02612198611883565b8786866040518563ffffffff1660e01b81526004016121ba9493929190613cbe565b6020604051808303816000875af19250505080156121f657506040513d601f19601f820116820180604052508101906121f39190613d1f565b60015b612279573d8060008114612226576040519150601f19603f3d011682016040523d82523d6000602084013e61222b565b606091505b50600081511415612271576040517f08c379a000000000000000000000000000000000000000000000000000000000815260040161226890613bb8565b60405180910390fd5b805181602001fd5b63150b7a0260e01b7bffffffffffffffffffffffffffffffffffffffffffffffffffffffff1916817bffffffffffffffffffffffffffffffffffffffffffffffffffffffff1916149150506122ce565b600190505b949350505050565b600073ffffffffffffffffffffffffffffffffffffffff168273ffffffffffffffffffffffffffffffffffffffff161415612346576040517f08c379a000000000000000000000000000000000000000000000000000000000815260040161233d90613d98565b60405180910390fd5b61234f81611817565b1561238f576040517f08c379a000000000000000000000000000000000000000000000000000000000815260040161238690613e04565b60405180910390fd5b61239b600083836120ee565b6001600360008473ffffffffffffffffffffffffffffffffffffffff1673ffffffffffffffffffffffffffffffffffffffff16815260200190815260200160002060008282546123eb9190613a84565b92505081905550816002600083815260200190815260200160002060006101000a81548173ffffffffffffffffffffffffffffffffffffffff021916908373ffffffffffffffffffffffffffffffffffffffff160217905550808273ffffffffffffffffffffffffffffffffffffffff16600073ffffffffffffffffffffffffffffffffffffffff167fddf252ad1be2c89b69c2b068fc378daa952ba7f163c4a11628f55a4df523b3ef60405160405180910390a45050565b600080823b905060008111915050919050565b8280546124c3906132fd565b90600052602060002090601f0160209004810192826124e5576000855561252c565b82601f106124fe57805160ff191683800117855561252c565b8280016001018555821561252c579182015b8281111561252b578251825591602001919060010190612510565b5b50905061253991906125d0565b5090565b6040518060e0016040528060008152602001600073ffffffffffffffffffffffffffffffffffffffff16815260200160608152602001606081526020016000815260200160008152602001600081525090565b50805461259c906132fd565b6000825580601f106125ae57506125cd565b601f0160209004906000526020600020908101906125cc91906125d0565b5b50565b5b808211156125e95760008160009055506001016125d1565b5090565b6000604051905090565b600080fd5b600080fd5b60007fffffffff0000000000000000000000000000000000000000000000000000000082169050919050565b61263681612601565b811461264157600080fd5b50565b6000813590506126538161262d565b92915050565b60006020828403121561266f5761266e6125f7565b5b600061267d84828501612644565b91505092915050565b60008115159050919050565b61269b81612686565b82525050565b60006020820190506126b66000830184612692565b92915050565b6000819050919050565b6126cf816126bc565b81146126da57600080fd5b50565b6000813590506126ec816126c6565b92915050565b600080fd5b600080fd5b600080fd5b60008083601f840112612717576127166126f2565b5b8235905067ffffffffffffffff811115612734576127336126f7565b5b6020830191508360018202830111156127505761274f6126fc565b5b9250929050565b600080fd5b6000601f19601f8301169050919050565b7f4e487b7100000000000000000000000000000000000000000000000000000000600052604160045260246000fd5b6127a58261275c565b810181811067ffffffffffffffff821117156127c4576127c361276d565b5b80604052505050565b60006127d76125ed565b90506127e3828261279c565b919050565b600067ffffffffffffffff8211156128035761280261276d565b5b61280c8261275c565b9050602081019050919050565b82818337600083830152505050565b600061283b612836846127e8565b6127cd565b90508281526020810184848401111561285757612856612757565b5b612862848285612819565b509392505050565b600082601f83011261287f5761287e6126f2565b5b813561288f848260208601612828565b91505092915050565b600080600080606085870312156128b2576128b16125f7565b5b60006128c0878288016126dd565b945050602085013567ffffffffffffffff8111156128e1576128e06125fc565b5b6128ed87828801612701565b9350935050604085013567ffffffffffffffff8111156129105761290f6125fc565b5b61291c8782880161286a565b91505092959194509250565b600081519050919050565b600082825260208201905092915050565b60005b83811015612962578082015181840152602081019050612947565b83811115612971576000848401525b50505050565b600061298282612928565b61298c8185612933565b935061299c818560208601612944565b6129a58161275c565b840191505092915050565b600060208201905081810360008301526129ca8184612977565b905092915050565b6000602082840312156129e8576129e76125f7565b5b60006129f6848285016126dd565b91505092915050565b600073ffffffffffffffffffffffffffffffffffffffff82169050919050565b6000612a2a826129ff565b9050919050565b612a3a81612a1f565b82525050565b6000602082019050612a556000830184612a31565b92915050565b612a6481612a1f565b8114612a6f57600080fd5b50565b600081359050612a8181612a5b565b92915050565b60008060408385031215612a9e57612a9d6125f7565b5b6000612aac85828601612a72565b9250506020612abd858286016126dd565b9150509250929050565b6000819050919050565b612ada81612ac7565b8114612ae557600080fd5b50565b600081359050612af781612ad1565b92915050565b60008060008060608587031215612b1757612b166125f7565b5b6000612b25878288016126dd565b945050602085013567ffffffffffffffff811115612b4657612b456125fc565b5b612b5287828801612701565b93509350506040612b6587828801612ae8565b91505092959194509250565b600080600060608486031215612b8a57612b896125f7565b5b6000612b9886828701612a72565b9350506020612ba986828701612a72565b9250506040612bba868287016126dd565b9150509250925092565b600080600060608486031215612bdd57612bdc6125f7565b5b600084013567ffffffffffffffff811115612bfb57612bfa6125fc565b5b612c078682870161286a565b935050602084013567ffffffffffffffff811115612c2857612c276125fc565b5b612c348682870161286a565b9250506040612c45868287016126dd565b9150509250925092565b612c58816126bc565b82525050565b6000602082019050612c736000830184612c4f565b92915050565b612c82816126bc565b82525050565b612c9181612a1f565b82525050565b600082825260208201905092915050565b6000612cb382612928565b612cbd8185612c97565b9350612ccd818560208601612944565b612cd68161275c565b840191505092915050565b600060e083016000830151612cf96000860182612c79565b506020830151612d0c6020860182612c88565b5060408301518482036040860152612d248282612ca8565b91505060608301518482036060860152612d3e8282612ca8565b9150506080830151612d536080860182612c79565b5060a0830151612d6660a0860182612c79565b5060c0830151612d7960c0860182612c79565b508091505092915050565b60006020820190508181036000830152612d9e8184612ce1565b905092915050565b600081519050919050565b600082825260208201905092915050565b6000819050602082019050919050565b600060e083016000830151612dea6000860182612c79565b506020830151612dfd6020860182612c88565b5060408301518482036040860152612e158282612ca8565b91505060608301518482036060860152612e2f8282612ca8565b9150506080830151612e446080860182612c79565b5060a0830151612e5760a0860182612c79565b5060c0830151612e6a60c0860182612c79565b508091505092915050565b6000612e818383612dd2565b905092915050565b6000602082019050919050565b6000612ea182612da6565b612eab8185612db1565b935083602082028501612ebd85612dc2565b8060005b85811015612ef95784840389528151612eda8582612e75565b9450612ee583612e89565b925060208a01995050600181019050612ec1565b50829750879550505050505092915050565b60006020820190508181036000830152612f258184612e96565b905092915050565b600060208284031215612f4357612f426125f7565b5b6000612f5184828501612a72565b91505092915050565b600081519050919050565b600082825260208201905092915050565b6000819050602082019050919050565b6000612f928383612c79565b60208301905092915050565b6000602082019050919050565b6000612fb682612f5a565b612fc08185612f65565b9350612fcb83612f76565b8060005b83811015612ffc578151612fe38882612f86565b9750612fee83612f9e565b925050600181019050612fcf565b5085935050505092915050565b600060208201905081810360008301526130238184612fab565b905092915050565b61303481612686565b811461303f57600080fd5b50565b6000813590506130518161302b565b92915050565b6000806040838503121561306e5761306d6125f7565b5b600061307c85828601612a72565b925050602061308d85828601613042565b9150509250929050565b6000806000604084860312156130b0576130af6125f7565b5b60006130be868287016126dd565b935050602084013567ffffffffffffffff8111156130df576130de6125fc565b5b6130eb86828701612701565b92509250509250925092565b600067ffffffffffffffff8211156131125761311161276d565b5b61311b8261275c565b9050602081019050919050565b600061313b613136846130f7565b6127cd565b90508281526020810184848401111561315757613156612757565b5b613162848285612819565b509392505050565b600082601f83011261317f5761317e6126f2565b5b813561318f848260208601613128565b91505092915050565b600080600080608085870312156131b2576131b16125f7565b5b60006131c087828801612a72565b94505060206131d187828801612a72565b93505060406131e2878288016126dd565b925050606085013567ffffffffffffffff811115613203576132026125fc565b5b61320f8782880161316a565b91505092959194509250565b61322481612ac7565b82525050565b600060208201905061323f600083018461321b565b92915050565b6000806040838503121561325c5761325b6125f7565b5b600061326a85828601612a72565b925050602061327b85828601612a72565b9150509250929050565b600081905092915050565b600061329c8385613285565b93506132a9838584612819565b82840190509392505050565b60006132c2828486613290565b91508190509392505050565b7f4e487b7100000000000000000000000000000000000000000000000000000000600052602260045260246000fd5b6000600282049050600182168061331557607f821691505b60208210811415613329576133286132ce565b5b50919050565b7f4552433732313a20617070726f76656420717565727920666f72206e6f6e657860008201527f697374656e7420746f6b656e0000000000000000000000000000000000000000602082015250565b600061338b602c83612933565b91506133968261332f565b604082019050919050565b600060208201905081810360008301526133ba8161337e565b9050919050565b7f4552433732313a20617070726f76616c20746f2063757272656e74206f776e6560008201527f7200000000000000000000000000000000000000000000000000000000000000602082015250565b600061341d602183612933565b9150613428826133c1565b604082019050919050565b6000602082019050818103600083015261344c81613410565b9050919050565b7f4552433732313a20617070726f76652063616c6c6572206973206e6f74206f7760008201527f6e6572206e6f7220617070726f76656420666f7220616c6c0000000000000000602082015250565b60006134af603883612933565b91506134ba82613453565b604082019050919050565b600060208201905081810360008301526134de816134a2565b9050919050565b7f4552433732313a207472616e736665722063616c6c6572206973206e6f74206f60008201527f776e6572206e6f7220617070726f766564000000000000000000000000000000602082015250565b6000613541603183612933565b915061354c826134e5565b604082019050919050565b6000602082019050818103600083015261357081613534565b9050919050565b600081519050613586816126c6565b92915050565b6000602082840312156135a2576135a16125f7565b5b60006135b084828501613577565b91505092915050565b7f4e487b7100000000000000000000000000000000000000000000000000000000600052601160045260246000fd5b60006135f3826126bc565b91507fffffffffffffffffffffffffffffffffffffffffffffffffffffffffffffffff821415613626576136256135b9565b5b600182019050919050565b600061363c826126bc565b9150613647836126bc565b92508282101561365a576136596135b9565b5b828203905092915050565b7f4552433732313a206f776e657220717565727920666f72206e6f6e657869737460008201527f656e7420746f6b656e0000000000000000000000000000000000000000000000602082015250565b60006136c1602983612933565b91506136cc82613665565b604082019050919050565b600060208201905081810360008301526136f0816136b4565b9050919050565b7f4e487b7100000000000000000000000000000000000000000000000000000000600052603260045260246000fd5b7f4552433732313a2062616c616e636520717565727920666f7220746865207a6560008201527f726f206164647265737300000000000000000000000000000000000000000000602082015250565b6000613782602a83612933565b915061378d82613726565b604082019050919050565b600060208201905081810360008301526137b181613775565b9050919050565b7f4e487b7100000000000000000000000000000000000000000000000000000000600052603160045260246000fd5b7f4552433732314d657461646174613a2055524920717565727920666f72206e6f60008201527f6e6578697374656e7420746f6b656e0000000000000000000000000000000000602082015250565b6000613843602f83612933565b915061384e826137e7565b604082019050919050565b6000602082019050818103600083015261387281613836565b9050919050565b600061388482612928565b61388e8185613285565b935061389e818560208601612944565b80840191505092915050565b60006138b68285613879565b91506138c28284613879565b91508190509392505050565b7f4552433732313a206f70657261746f7220717565727920666f72206e6f6e657860008201527f697374656e7420746f6b656e0000000000000000000000000000000000000000602082015250565b600061392a602c83612933565b9150613935826138ce565b604082019050919050565b600060208201905081810360008301526139598161391d565b9050919050565b7f4552433732313a207472616e73666572206f6620746f6b656e2074686174206960008201527f73206e6f74206f776e0000000000000000000000000000000000000000000000602082015250565b60006139bc602983612933565b91506139c782613960565b604082019050919050565b600060208201905081810360008301526139eb816139af565b9050919050565b7f4552433732313a207472616e7366657220746f20746865207a65726f2061646460008201527f7265737300000000000000000000000000000000000000000000000000000000602082015250565b6000613a4e602483612933565b9150613a59826139f2565b604082019050919050565b60006020820190508181036000830152613a7d81613a41565b9050919050565b6000613a8f826126bc565b9150613a9a836126bc565b9250827fffffffffffffffffffffffffffffffffffffffffffffffffffffffffffffffff03821115613acf57613ace6135b9565b5b828201905092915050565b7f4552433732313a20617070726f766520746f2063616c6c657200000000000000600082015250565b6000613b10601983612933565b9150613b1b82613ada565b602082019050919050565b60006020820190508181036000830152613b3f81613b03565b9050919050565b7f4552433732313a207472616e7366657220746f206e6f6e20455243373231526560008201527f63656976657220696d706c656d656e7465720000000000000000000000000000602082015250565b6000613ba2603283612933565b9150613bad82613b46565b604082019050919050565b60006020820190508181036000830152613bd181613b95565b9050919050565b7f4e487b7100000000000000000000000000000000000000000000000000000000600052601260045260246000fd5b6000613c12826126bc565b9150613c1d836126bc565b925082613c2d57613c2c613bd8565b5b828204905092915050565b6000613c43826126bc565b9150613c4e836126bc565b925082613c5e57613c5d613bd8565b5b828206905092915050565b600081519050919050565b600082825260208201905092915050565b6000613c9082613c69565b613c9a8185613c74565b9350613caa818560208601612944565b613cb38161275c565b840191505092915050565b6000608082019050613cd36000830187612a31565b613ce06020830186612a31565b613ced6040830185612c4f565b8181036060830152613cff8184613c85565b905095945050505050565b600081519050613d198161262d565b92915050565b600060208284031215613d3557613d346125f7565b5b6000613d4384828501613d0a565b91505092915050565b7f4552433732313a206d696e7420746f20746865207a65726f2061646472657373600082015250565b6000613d82602083612933565b9150613d8d82613d4c565b602082019050919050565b60006020820190508181036000830152613db181613d75565b9050919050565b7f4552433732313a20746f6b656e20616c7265616479206d696e74656400000000600082015250565b6000613dee601c83612933565b9150613df982613db8565b602082019050919050565b60006020820190508181036000830152613e1d81613de1565b905091905056fea26469706673582212205fc0e7b8b1602f99aaf2722ccc1ae891c9e98a00c117faf86425cd6f64fc5c3d64736f6c634300080a0033",
  "immutableReferences": {},
  "source": "// SPDX-License-Identifier: MIT\npragma solidity 0.8.10;\n\n//                 _     _               \n//  _ __ ___   ___| |_  | |__   _____  __\n// | '_ ` _ \\ / _ \\ __| | '_ \\ / _ \\ \\/ /\n// | | | | | |  __/ |_  | | | |  __/>  < \n// |_| |_| |_|\\___|\\__| |_| |_|\\___/_/\\_\\\n//                                       \n//  Met Hex Node Registry\n//\n// Contract - https://t.me/geimskip\n\nimport \"@openzeppelin/contracts/access/Ownable.sol\";\nimport \"@openzeppelin/contracts/token/ERC721/ERC721.sol\";\nimport \"./UserAuth.sol\";\n\n\nstruct Node {\n    uint id;\n    address owner;\n    string name;\n    string ip;\n    uint port;\n\n    uint _time;\n    uint _index;\n}\n\nstruct NodeMetaData {\n    mapping(string => string) string_data;\n    mapping(string => int) int_data;\n}\n\n\n\ncontract NodeRegistry is ERC721 {\n    event NodeAdded(uint indexed id);\n    event NodeRemoved(uint indexed id);\n\n    uint _total;\n\n    UserAuth _playerAuth;\n    mapping(uint => Node) _nodes;\n    mapping(uint => NodeMetaData) _metadata;\n    uint[] _serverIDs;\n\n    constructor(UserAuth playerAuth) ERC721(\"MetHex Node\", \"METHEX-NODE\") {\n        _playerAuth = playerAuth;\n    }\n\n    modifier authed () {\n        require(_playerAuth.balanceOf(msg.sender) == 1);\n        _;\n    }\n\n    function RegisterNode(string memory name, string memory ip, uint port) external authed returns (uint) {\n        require(balanceOf(msg.sender) == 0);\n\n        uint id = ++_total;\n        Node storage node = _nodes[id];\n        _serverIDs.push(id);\n        _safeMint(msg.sender, id);\n\n        node.id = id;\n        node.owner = msg.sender;\n        node.name = name;\n        node.ip = ip;\n        node.port = port;\n\n        node._index = _serverIDs.length - 1;\n        node._time = block.timestamp;\n\n        emit NodeAdded(id);\n\n        return id;\n    }\n\n\n    function RemoveNode(uint id) external authed {\n        require (ownerOf(id) == msg.sender);\n\n        // Get the array index\n        uint _index = _nodes[id]._index;\n        // Put the last element into that slot\n        _serverIDs[_index] = _serverIDs[_serverIDs.length - 1];\n        // Delete the last element\n        _serverIDs.pop();\n\n        // Update the array index of the serverid that got moved\n        uint movedId = _serverIDs[_index];\n        _nodes[movedId]._index = _index;\n\n        // Delete the actual Node entry\n        delete _nodes[id];\n\n        // Burn the Node NFT\n        _burn(id);\n\n        emit NodeRemoved(id);\n    }\n\n\n    function KeepAlive(uint id) external authed {\n        require (ownerOf(id) == msg.sender);\n        _nodes[id]._time = block.timestamp;\n    }\n\n\n    function NodeIdList() external view returns (uint[] memory) {\n        return _serverIDs;\n    }\n\n\n    function NodeList()  external view returns (Node[] memory) {\n        uint num_nodes = _serverIDs.length;\n        Node[] memory nodes = new Node[](num_nodes);\n\n        for (uint i=0; i<_serverIDs.length; i++) {\n            nodes[i] = _nodes[_serverIDs[i]];\n        }\n        return nodes;\n    }\n\n\n    function GetNode(uint id) external view returns (Node memory) {\n        return _nodes[id];\n    }\n\n\n    function SetMetadata_String(uint nodeid, string calldata key, string memory value) external {\n        _metadata[nodeid].string_data[key] = value;\n    }\n\n\n    function GetMetadata_String(uint nodeid, string calldata key) external view returns (string memory) {\n        return _metadata[nodeid].string_data[key];\n    }\n\n\n    function SetMetadata_Int(uint nodeid, string calldata key, int value) external {\n        _metadata[nodeid].int_data[key] = value;\n    }\n\n\n    function GetMetadata_Int(uint nodeid, string calldata key) external view returns (int) {\n        return _metadata[nodeid].int_data[key];\n    }\n}\n",
  "sourcePath": "/home/davidg/Documents/Ethereum/MetHex/contracts/NodeRegistry.sol",
  "compiler": {
    "name": "solc",
    "version": "0.8.10+commit.fc410830.Emscripten.clang"
  },
  "schemaVersion": "3.4.3",
  "updatedAt": "2022-02-03T14:54:30.671Z",
  "networkType": "ethereum",
  "devdoc": {
    "kind": "dev",
    "methods": {
      "approve(address,uint256)": {
        "details": "See {IERC721-approve}."
      },
      "balanceOf(address)": {
        "details": "See {IERC721-balanceOf}."
      },
      "getApproved(uint256)": {
        "details": "See {IERC721-getApproved}."
      },
      "isApprovedForAll(address,address)": {
        "details": "See {IERC721-isApprovedForAll}."
      },
      "name()": {
        "details": "See {IERC721Metadata-name}."
      },
      "ownerOf(uint256)": {
        "details": "See {IERC721-ownerOf}."
      },
      "safeTransferFrom(address,address,uint256)": {
        "details": "See {IERC721-safeTransferFrom}."
      },
      "safeTransferFrom(address,address,uint256,bytes)": {
        "details": "See {IERC721-safeTransferFrom}."
      },
      "setApprovalForAll(address,bool)": {
        "details": "See {IERC721-setApprovalForAll}."
      },
      "supportsInterface(bytes4)": {
        "details": "See {IERC165-supportsInterface}."
      },
      "symbol()": {
        "details": "See {IERC721Metadata-symbol}."
      },
      "tokenURI(uint256)": {
        "details": "See {IERC721Metadata-tokenURI}."
      },
      "transferFrom(address,address,uint256)": {
        "details": "See {IERC721-transferFrom}."
      }
    },
    "version": 1
  },
  "userdoc": {
    "kind": "user",
    "methods": {},
    "version": 1
  }
}