{
  "contractName": "UserAuth",
  "abi": [
    {
      "inputs": [],
      "stateMutability": "nonpayable",
      "type": "constructor"
    },
    {
      "anonymous": false,
      "inputs": [
        {
          "indexed": true,
          "internalType": "address",
          "name": "owner",
          "type": "address"
        },
        {
          "indexed": true,
          "internalType": "address",
          "name": "approved",
          "type": "address"
        },
        {
          "indexed": true,
          "internalType": "uint256",
          "name": "tokenId",
          "type": "uint256"
        }
      ],
      "name": "Approval",
      "type": "event"
    },
    {
      "anonymous": false,
      "inputs": [
        {
          "indexed": true,
          "internalType": "address",
          "name": "owner",
          "type": "address"
        },
        {
          "indexed": true,
          "internalType": "address",
          "name": "operator",
          "type": "address"
        },
        {
          "indexed": false,
          "internalType": "bool",
          "name": "approved",
          "type": "bool"
        }
      ],
      "name": "ApprovalForAll",
      "type": "event"
    },
    {
      "anonymous": false,
      "inputs": [
        {
          "indexed": true,
          "internalType": "address",
          "name": "from",
          "type": "address"
        },
        {
          "indexed": true,
          "internalType": "address",
          "name": "to",
          "type": "address"
        },
        {
          "indexed": true,
          "internalType": "uint256",
          "name": "tokenId",
          "type": "uint256"
        }
      ],
      "name": "Transfer",
      "type": "event"
    },
    {
      "inputs": [
        {
          "internalType": "address",
          "name": "to",
          "type": "address"
        },
        {
          "internalType": "uint256",
          "name": "tokenId",
          "type": "uint256"
        }
      ],
      "name": "approve",
      "outputs": [],
      "stateMutability": "nonpayable",
      "type": "function"
    },
    {
      "inputs": [
        {
          "internalType": "address",
          "name": "owner",
          "type": "address"
        }
      ],
      "name": "balanceOf",
      "outputs": [
        {
          "internalType": "uint256",
          "name": "",
          "type": "uint256"
        }
      ],
      "stateMutability": "view",
      "type": "function",
      "constant": true
    },
    {
      "inputs": [
        {
          "internalType": "uint256",
          "name": "tokenId",
          "type": "uint256"
        }
      ],
      "name": "getApproved",
      "outputs": [
        {
          "internalType": "address",
          "name": "",
          "type": "address"
        }
      ],
      "stateMutability": "view",
      "type": "function",
      "constant": true
    },
    {
      "inputs": [
        {
          "internalType": "address",
          "name": "owner",
          "type": "address"
        },
        {
          "internalType": "address",
          "name": "operator",
          "type": "address"
        }
      ],
      "name": "isApprovedForAll",
      "outputs": [
        {
          "internalType": "bool",
          "name": "",
          "type": "bool"
        }
      ],
      "stateMutability": "view",
      "type": "function",
      "constant": true
    },
    {
      "inputs": [],
      "name": "name",
      "outputs": [
        {
          "internalType": "string",
          "name": "",
          "type": "string"
        }
      ],
      "stateMutability": "view",
      "type": "function",
      "constant": true
    },
    {
      "inputs": [
        {
          "internalType": "uint256",
          "name": "tokenId",
          "type": "uint256"
        }
      ],
      "name": "ownerOf",
      "outputs": [
        {
          "internalType": "address",
          "name": "",
          "type": "address"
        }
      ],
      "stateMutability": "view",
      "type": "function",
      "constant": true
    },
    {
      "inputs": [
        {
          "internalType": "address",
          "name": "from",
          "type": "address"
        },
        {
          "internalType": "address",
          "name": "to",
          "type": "address"
        },
        {
          "internalType": "uint256",
          "name": "tokenId",
          "type": "uint256"
        }
      ],
      "name": "safeTransferFrom",
      "outputs": [],
      "stateMutability": "nonpayable",
      "type": "function"
    },
    {
      "inputs": [
        {
          "internalType": "address",
          "name": "from",
          "type": "address"
        },
        {
          "internalType": "address",
          "name": "to",
          "type": "address"
        },
        {
          "internalType": "uint256",
          "name": "tokenId",
          "type": "uint256"
        },
        {
          "internalType": "bytes",
          "name": "_data",
          "type": "bytes"
        }
      ],
      "name": "safeTransferFrom",
      "outputs": [],
      "stateMutability": "nonpayable",
      "type": "function"
    },
    {
      "inputs": [
        {
          "internalType": "address",
          "name": "operator",
          "type": "address"
        },
        {
          "internalType": "bool",
          "name": "approved",
          "type": "bool"
        }
      ],
      "name": "setApprovalForAll",
      "outputs": [],
      "stateMutability": "nonpayable",
      "type": "function"
    },
    {
      "inputs": [
        {
          "internalType": "bytes4",
          "name": "interfaceId",
          "type": "bytes4"
        }
      ],
      "name": "supportsInterface",
      "outputs": [
        {
          "internalType": "bool",
          "name": "",
          "type": "bool"
        }
      ],
      "stateMutability": "view",
      "type": "function",
      "constant": true
    },
    {
      "inputs": [],
      "name": "symbol",
      "outputs": [
        {
          "internalType": "string",
          "name": "",
          "type": "string"
        }
      ],
      "stateMutability": "view",
      "type": "function",
      "constant": true
    },
    {
      "inputs": [
        {
          "internalType": "address",
          "name": "from",
          "type": "address"
        },
        {
          "internalType": "address",
          "name": "to",
          "type": "address"
        },
        {
          "internalType": "uint256",
          "name": "tokenId",
          "type": "uint256"
        }
      ],
      "name": "transferFrom",
      "outputs": [],
      "stateMutability": "nonpayable",
      "type": "function"
    },
    {
      "inputs": [
        {
          "internalType": "string",
          "name": "name",
          "type": "string"
        },
        {
          "internalType": "string",
          "name": "uri",
          "type": "string"
        }
      ],
      "name": "Register",
      "outputs": [
        {
          "internalType": "uint256",
          "name": "tokenId",
          "type": "uint256"
        }
      ],
      "stateMutability": "nonpayable",
      "type": "function"
    },
    {
      "inputs": [
        {
          "internalType": "uint256",
          "name": "tokenId",
          "type": "uint256"
        },
        {
          "internalType": "string",
          "name": "uri",
          "type": "string"
        }
      ],
      "name": "SetURI",
      "outputs": [],
      "stateMutability": "nonpayable",
      "type": "function"
    },
    {
      "inputs": [
        {
          "internalType": "uint256",
          "name": "tokenId",
          "type": "uint256"
        }
      ],
      "name": "tokenURI",
      "outputs": [
        {
          "internalType": "string",
          "name": "",
          "type": "string"
        }
      ],
      "stateMutability": "view",
      "type": "function",
      "constant": true
    },
    {
      "inputs": [
        {
          "internalType": "address",
          "name": "account",
          "type": "address"
        }
      ],
      "name": "GetTokenId",
      "outputs": [
        {
          "internalType": "uint256",
          "name": "tokenId",
          "type": "uint256"
        }
      ],
      "stateMutability": "pure",
      "type": "function",
      "constant": true
    },
    {
      "inputs": [
        {
          "internalType": "uint256",
          "name": "tokenId",
          "type": "uint256"
        }
      ],
      "name": "GetUserInfo",
      "outputs": [
        {
          "components": [
            {
              "internalType": "address",
              "name": "owner",
              "type": "address"
            },
            {
              "internalType": "string",
              "name": "name",
              "type": "string"
            },
            {
              "internalType": "string",
              "name": "uri",
              "type": "string"
            }
          ],
          "internalType": "struct User",
          "name": "",
          "type": "tuple"
        }
      ],
      "stateMutability": "view",
      "type": "function",
      "constant": true
    }
  ],
  "bytecode": "0x60806040523480156200001157600080fd5b506040518060400160405280600b81526020017f4d657448657820417574680000000000000000000000000000000000000000008152506040518060400160405280600b81526020017f4d45544845582d41555448000000000000000000000000000000000000000000815250816000908051906020019062000096929190620000b8565b508060019080519060200190620000af929190620000b8565b505050620001cd565b828054620000c69062000197565b90600052602060002090601f016020900481019282620000ea576000855562000136565b82601f106200010557805160ff191683800117855562000136565b8280016001018555821562000136579182015b828111156200013557825182559160200191906001019062000118565b5b50905062000145919062000149565b5090565b5b80821115620001645760008160009055506001016200014a565b5090565b7f4e487b7100000000000000000000000000000000000000000000000000000000600052602260045260246000fd5b60006002820490506001821680620001b057607f821691505b60208210811415620001c757620001c662000168565b5b50919050565b612c1380620001dd6000396000f3fe608060405234801561001057600080fd5b506004361061010b5760003560e01c80636352211e116100a2578063b88d4fde11610071578063b88d4fde146102dc578063c87b56dd146102f8578063d6192e2914610328578063e985e9c514610358578063ee1bb82f146103885761010b565b80636352211e1461024257806370a082311461027257806395d89b41146102a2578063a22cb465146102c05761010b565b806323b872dd116100de57806323b872dd146101aa57806339dc9d40146101c657806342842e0e146101f65780635c76ead1146102125761010b565b806301ffc9a71461011057806306fdde0314610140578063081812fc1461015e578063095ea7b31461018e575b600080fd5b61012a60048036038101906101259190611a55565b6103a4565b6040516101379190611a9d565b60405180910390f35b610148610486565b6040516101559190611b51565b60405180910390f35b61017860048036038101906101739190611ba9565b610518565b6040516101859190611c17565b60405180910390f35b6101a860048036038101906101a39190611c5e565b61059d565b005b6101c460048036038101906101bf9190611c9e565b6106b5565b005b6101e060048036038101906101db9190611ba9565b610715565b6040516101ed9190611da1565b60405180910390f35b610210600480360381019061020b9190611c9e565b6108bc565b005b61022c60048036038101906102279190611dc3565b6108dc565b6040516102399190611dff565b60405180910390f35b61025c60048036038101906102579190611ba9565b61090f565b6040516102699190611c17565b60405180910390f35b61028c60048036038101906102879190611dc3565b6109c1565b6040516102999190611dff565b60405180910390f35b6102aa610a79565b6040516102b79190611b51565b60405180910390f35b6102da60048036038101906102d59190611e46565b610b0b565b005b6102f660048036038101906102f19190611fbb565b610b21565b005b610312600480360381019061030d9190611ba9565b610b83565b60405161031f9190611b51565b60405180910390f35b610342600480360381019061033d91906120df565b610c73565b60405161034f9190611dff565b60405180910390f35b610372600480360381019061036d9190612157565b610d52565b60405161037f9190611a9d565b60405180910390f35b6103a2600480360381019061039d9190612197565b610de6565b005b60007f80ac58cd000000000000000000000000000000000000000000000000000000007bffffffffffffffffffffffffffffffffffffffffffffffffffffffff1916827bffffffffffffffffffffffffffffffffffffffffffffffffffffffff1916148061046f57507f5b5e139f000000000000000000000000000000000000000000000000000000007bffffffffffffffffffffffffffffffffffffffffffffffffffffffff1916827bffffffffffffffffffffffffffffffffffffffffffffffffffffffff1916145b8061047f575061047e82610e55565b5b9050919050565b60606000805461049590612222565b80601f01602080910402602001604051908101604052809291908181526020018280546104c190612222565b801561050e5780601f106104e35761010080835404028352916020019161050e565b820191906000526020600020905b8154815290600101906020018083116104f157829003601f168201915b5050505050905090565b600061052382610ebf565b610562576040517f08c379a0000000000000000000000000000000000000000000000000000000008152600401610559906122c6565b60405180910390fd5b6004600083815260200190815260200160002060009054906101000a900473ffffffffffffffffffffffffffffffffffffffff169050919050565b60006105a88261090f565b90508073ffffffffffffffffffffffffffffffffffffffff168373ffffffffffffffffffffffffffffffffffffffff161415610619576040517f08c379a000000000000000000000000000000000000000000000000000000000815260040161061090612358565b60405180910390fd5b8073ffffffffffffffffffffffffffffffffffffffff16610638610f2b565b73ffffffffffffffffffffffffffffffffffffffff161480610667575061066681610661610f2b565b610d52565b5b6106a6576040517f08c379a000000000000000000000000000000000000000000000000000000000815260040161069d906123ea565b60405180910390fd5b6106b08383610f33565b505050565b6106c66106c0610f2b565b82610fec565b610705576040517f08c379a00000000000000000000000000000000000000000000000000000000081526004016106fc9061247c565b60405180910390fd5b6107108383836110ca565b505050565b61071d61190f565b600660008381526020019081526020016000206040518060600160405290816000820160009054906101000a900473ffffffffffffffffffffffffffffffffffffffff1673ffffffffffffffffffffffffffffffffffffffff1673ffffffffffffffffffffffffffffffffffffffff1681526020016001820180546107a190612222565b80601f01602080910402602001604051908101604052809291908181526020018280546107cd90612222565b801561081a5780601f106107ef5761010080835404028352916020019161081a565b820191906000526020600020905b8154815290600101906020018083116107fd57829003601f168201915b5050505050815260200160028201805461083390612222565b80601f016020809104026020016040519081016040528092919081815260200182805461085f90612222565b80156108ac5780601f10610881576101008083540402835291602001916108ac565b820191906000526020600020905b81548152906001019060200180831161088f57829003601f168201915b5050505050815250509050919050565b6108d783838360405180602001604052806000815250610b21565b505050565b6000816040516020016108ef91906124e4565b6040516020818303038152906040528051906020012060001c9050919050565b6000806002600084815260200190815260200160002060009054906101000a900473ffffffffffffffffffffffffffffffffffffffff169050600073ffffffffffffffffffffffffffffffffffffffff168173ffffffffffffffffffffffffffffffffffffffff1614156109b8576040517f08c379a00000000000000000000000000000000000000000000000000000000081526004016109af90612571565b60405180910390fd5b80915050919050565b60008073ffffffffffffffffffffffffffffffffffffffff168273ffffffffffffffffffffffffffffffffffffffff161415610a32576040517f08c379a0000000000000000000000000000000000000000000000000000000008152600401610a2990612603565b60405180910390fd5b600360008373ffffffffffffffffffffffffffffffffffffffff1673ffffffffffffffffffffffffffffffffffffffff168152602001908152602001600020549050919050565b606060018054610a8890612222565b80601f0160208091040260200160405190810160405280929190818152602001828054610ab490612222565b8015610b015780601f10610ad657610100808354040283529160200191610b01565b820191906000526020600020905b815481529060010190602001808311610ae457829003601f168201915b5050505050905090565b610b1d610b16610f2b565b8383611326565b5050565b610b32610b2c610f2b565b83610fec565b610b71576040517f08c379a0000000000000000000000000000000000000000000000000000000008152600401610b689061247c565b60405180910390fd5b610b7d84848484611493565b50505050565b6060610b8e82610ebf565b610bcd576040517f08c379a0000000000000000000000000000000000000000000000000000000008152600401610bc490612695565b60405180910390fd5b600660008381526020019081526020016000206002018054610bee90612222565b80601f0160208091040260200160405190810160405280929190818152602001828054610c1a90612222565b8015610c675780601f10610c3c57610100808354040283529160200191610c67565b820191906000526020600020905b815481529060010190602001808311610c4a57829003601f168201915b50505050509050919050565b600080610c7f336109c1565b14610c8957600080fd5b33604051602001610c9a91906124e4565b6040516020818303038152906040528051906020012060001c9050610cbf33826114ef565b6000600660008381526020019081526020016000209050338160000160006101000a81548173ffffffffffffffffffffffffffffffffffffffff021916908373ffffffffffffffffffffffffffffffffffffffff16021790555083816001019080519060200190610d31929190611946565b5082816002019080519060200190610d4a929190611946565b505092915050565b6000600560008473ffffffffffffffffffffffffffffffffffffffff1673ffffffffffffffffffffffffffffffffffffffff16815260200190815260200160002060008373ffffffffffffffffffffffffffffffffffffffff1673ffffffffffffffffffffffffffffffffffffffff16815260200190815260200160002060009054906101000a900460ff16905092915050565b3373ffffffffffffffffffffffffffffffffffffffff16610e068361090f565b73ffffffffffffffffffffffffffffffffffffffff1614610e2657600080fd5b80600660008481526020019081526020016000206002019080519060200190610e50929190611946565b505050565b60007f01ffc9a7000000000000000000000000000000000000000000000000000000007bffffffffffffffffffffffffffffffffffffffffffffffffffffffff1916827bffffffffffffffffffffffffffffffffffffffffffffffffffffffff1916149050919050565b60008073ffffffffffffffffffffffffffffffffffffffff166002600084815260200190815260200160002060009054906101000a900473ffffffffffffffffffffffffffffffffffffffff1673ffffffffffffffffffffffffffffffffffffffff1614159050919050565b600033905090565b816004600083815260200190815260200160002060006101000a81548173ffffffffffffffffffffffffffffffffffffffff021916908373ffffffffffffffffffffffffffffffffffffffff160217905550808273ffffffffffffffffffffffffffffffffffffffff16610fa68361090f565b73ffffffffffffffffffffffffffffffffffffffff167f8c5be1e5ebec7d5bd14f71427d1e84f3dd0314c0f7b2291e5b200ac8c7c3b92560405160405180910390a45050565b6000610ff782610ebf565b611036576040517f08c379a000000000000000000000000000000000000000000000000000000000815260040161102d90612727565b60405180910390fd5b60006110418361090f565b90508073ffffffffffffffffffffffffffffffffffffffff168473ffffffffffffffffffffffffffffffffffffffff1614806110b057508373ffffffffffffffffffffffffffffffffffffffff1661109884610518565b73ffffffffffffffffffffffffffffffffffffffff16145b806110c157506110c08185610d52565b5b91505092915050565b8273ffffffffffffffffffffffffffffffffffffffff166110ea8261090f565b73ffffffffffffffffffffffffffffffffffffffff1614611140576040517f08c379a0000000000000000000000000000000000000000000000000000000008152600401611137906127b9565b60405180910390fd5b600073ffffffffffffffffffffffffffffffffffffffff168273ffffffffffffffffffffffffffffffffffffffff1614156111b0576040517f08c379a00000000000000000000000000000000000000000000000000000000081526004016111a79061284b565b60405180910390fd5b6111bb83838361150d565b6111c6600082610f33565b6001600360008573ffffffffffffffffffffffffffffffffffffffff1673ffffffffffffffffffffffffffffffffffffffff1681526020019081526020016000206000828254611216919061289a565b925050819055506001600360008473ffffffffffffffffffffffffffffffffffffffff1673ffffffffffffffffffffffffffffffffffffffff168152602001908152602001600020600082825461126d91906128ce565b92505081905550816002600083815260200190815260200160002060006101000a81548173ffffffffffffffffffffffffffffffffffffffff021916908373ffffffffffffffffffffffffffffffffffffffff160217905550808273ffffffffffffffffffffffffffffffffffffffff168473ffffffffffffffffffffffffffffffffffffffff167fddf252ad1be2c89b69c2b068fc378daa952ba7f163c4a11628f55a4df523b3ef60405160405180910390a4505050565b8173ffffffffffffffffffffffffffffffffffffffff168373ffffffffffffffffffffffffffffffffffffffff161415611395576040517f08c379a000000000000000000000000000000000000000000000000000000000815260040161138c90612970565b60405180910390fd5b80600560008573ffffffffffffffffffffffffffffffffffffffff1673ffffffffffffffffffffffffffffffffffffffff16815260200190815260200160002060008473ffffffffffffffffffffffffffffffffffffffff1673ffffffffffffffffffffffffffffffffffffffff16815260200190815260200160002060006101000a81548160ff0219169083151502179055508173ffffffffffffffffffffffffffffffffffffffff168373ffffffffffffffffffffffffffffffffffffffff167f17307eab39ab6107e8899845ad3d59bd9653f200f220920489ca2b5937696c31836040516114869190611a9d565b60405180910390a3505050565b61149e8484846110ca565b6114aa8484848461154b565b6114e9576040517f08c379a00000000000000000000000000000000000000000000000000000000081526004016114e090612a02565b60405180910390fd5b50505050565b6115098282604051806020016040528060008152506116d3565b5050565b600073ffffffffffffffffffffffffffffffffffffffff168373ffffffffffffffffffffffffffffffffffffffff161461154657600080fd5b505050565b600061156c8473ffffffffffffffffffffffffffffffffffffffff1661172e565b156116c6578373ffffffffffffffffffffffffffffffffffffffff1663150b7a02611595610f2b565b8786866040518563ffffffff1660e01b81526004016115b79493929190612a77565b6020604051808303816000875af19250505080156115f357506040513d601f19601f820116820180604052508101906115f09190612ad8565b60015b611676573d8060008114611623576040519150601f19603f3d011682016040523d82523d6000602084013e611628565b606091505b5060008151141561166e576040517f08c379a000000000000000000000000000000000000000000000000000000000815260040161166590612a02565b60405180910390fd5b805181602001fd5b63150b7a0260e01b7bffffffffffffffffffffffffffffffffffffffffffffffffffffffff1916817bffffffffffffffffffffffffffffffffffffffffffffffffffffffff1916149150506116cb565b600190505b949350505050565b6116dd8383611741565b6116ea600084848461154b565b611729576040517f08c379a000000000000000000000000000000000000000000000000000000000815260040161172090612a02565b60405180910390fd5b505050565b600080823b905060008111915050919050565b600073ffffffffffffffffffffffffffffffffffffffff168273ffffffffffffffffffffffffffffffffffffffff1614156117b1576040517f08c379a00000000000000000000000000000000000000000000000000000000081526004016117a890612b51565b60405180910390fd5b6117ba81610ebf565b156117fa576040517f08c379a00000000000000000000000000000000000000000000000000000000081526004016117f190612bbd565b60405180910390fd5b6118066000838361150d565b6001600360008473ffffffffffffffffffffffffffffffffffffffff1673ffffffffffffffffffffffffffffffffffffffff168152602001908152602001600020600082825461185691906128ce565b92505081905550816002600083815260200190815260200160002060006101000a81548173ffffffffffffffffffffffffffffffffffffffff021916908373ffffffffffffffffffffffffffffffffffffffff160217905550808273ffffffffffffffffffffffffffffffffffffffff16600073ffffffffffffffffffffffffffffffffffffffff167fddf252ad1be2c89b69c2b068fc378daa952ba7f163c4a11628f55a4df523b3ef60405160405180910390a45050565b6040518060600160405280600073ffffffffffffffffffffffffffffffffffffffff16815260200160608152602001606081525090565b82805461195290612222565b90600052602060002090601f01602090048101928261197457600085556119bb565b82601f1061198d57805160ff19168380011785556119bb565b828001600101855582156119bb579182015b828111156119ba57825182559160200191906001019061199f565b5b5090506119c891906119cc565b5090565b5b808211156119e55760008160009055506001016119cd565b5090565b6000604051905090565b600080fd5b600080fd5b60007fffffffff0000000000000000000000000000000000000000000000000000000082169050919050565b611a32816119fd565b8114611a3d57600080fd5b50565b600081359050611a4f81611a29565b92915050565b600060208284031215611a6b57611a6a6119f3565b5b6000611a7984828501611a40565b91505092915050565b60008115159050919050565b611a9781611a82565b82525050565b6000602082019050611ab26000830184611a8e565b92915050565b600081519050919050565b600082825260208201905092915050565b60005b83811015611af2578082015181840152602081019050611ad7565b83811115611b01576000848401525b50505050565b6000601f19601f8301169050919050565b6000611b2382611ab8565b611b2d8185611ac3565b9350611b3d818560208601611ad4565b611b4681611b07565b840191505092915050565b60006020820190508181036000830152611b6b8184611b18565b905092915050565b6000819050919050565b611b8681611b73565b8114611b9157600080fd5b50565b600081359050611ba381611b7d565b92915050565b600060208284031215611bbf57611bbe6119f3565b5b6000611bcd84828501611b94565b91505092915050565b600073ffffffffffffffffffffffffffffffffffffffff82169050919050565b6000611c0182611bd6565b9050919050565b611c1181611bf6565b82525050565b6000602082019050611c2c6000830184611c08565b92915050565b611c3b81611bf6565b8114611c4657600080fd5b50565b600081359050611c5881611c32565b92915050565b60008060408385031215611c7557611c746119f3565b5b6000611c8385828601611c49565b9250506020611c9485828601611b94565b9150509250929050565b600080600060608486031215611cb757611cb66119f3565b5b6000611cc586828701611c49565b9350506020611cd686828701611c49565b9250506040611ce786828701611b94565b9150509250925092565b611cfa81611bf6565b82525050565b600082825260208201905092915050565b6000611d1c82611ab8565b611d268185611d00565b9350611d36818560208601611ad4565b611d3f81611b07565b840191505092915050565b6000606083016000830151611d626000860182611cf1565b5060208301518482036020860152611d7a8282611d11565b91505060408301518482036040860152611d948282611d11565b9150508091505092915050565b60006020820190508181036000830152611dbb8184611d4a565b905092915050565b600060208284031215611dd957611dd86119f3565b5b6000611de784828501611c49565b91505092915050565b611df981611b73565b82525050565b6000602082019050611e146000830184611df0565b92915050565b611e2381611a82565b8114611e2e57600080fd5b50565b600081359050611e4081611e1a565b92915050565b60008060408385031215611e5d57611e5c6119f3565b5b6000611e6b85828601611c49565b9250506020611e7c85828601611e31565b9150509250929050565b600080fd5b600080fd5b7f4e487b7100000000000000000000000000000000000000000000000000000000600052604160045260246000fd5b611ec882611b07565b810181811067ffffffffffffffff82111715611ee757611ee6611e90565b5b80604052505050565b6000611efa6119e9565b9050611f068282611ebf565b919050565b600067ffffffffffffffff821115611f2657611f25611e90565b5b611f2f82611b07565b9050602081019050919050565b82818337600083830152505050565b6000611f5e611f5984611f0b565b611ef0565b905082815260208101848484011115611f7a57611f79611e8b565b5b611f85848285611f3c565b509392505050565b600082601f830112611fa257611fa1611e86565b5b8135611fb2848260208601611f4b565b91505092915050565b60008060008060808587031215611fd557611fd46119f3565b5b6000611fe387828801611c49565b9450506020611ff487828801611c49565b935050604061200587828801611b94565b925050606085013567ffffffffffffffff811115612026576120256119f8565b5b61203287828801611f8d565b91505092959194509250565b600067ffffffffffffffff82111561205957612058611e90565b5b61206282611b07565b9050602081019050919050565b600061208261207d8461203e565b611ef0565b90508281526020810184848401111561209e5761209d611e8b565b5b6120a9848285611f3c565b509392505050565b600082601f8301126120c6576120c5611e86565b5b81356120d684826020860161206f565b91505092915050565b600080604083850312156120f6576120f56119f3565b5b600083013567ffffffffffffffff811115612114576121136119f8565b5b612120858286016120b1565b925050602083013567ffffffffffffffff811115612141576121406119f8565b5b61214d858286016120b1565b9150509250929050565b6000806040838503121561216e5761216d6119f3565b5b600061217c85828601611c49565b925050602061218d85828601611c49565b9150509250929050565b600080604083850312156121ae576121ad6119f3565b5b60006121bc85828601611b94565b925050602083013567ffffffffffffffff8111156121dd576121dc6119f8565b5b6121e9858286016120b1565b9150509250929050565b7f4e487b7100000000000000000000000000000000000000000000000000000000600052602260045260246000fd5b6000600282049050600182168061223a57607f821691505b6020821081141561224e5761224d6121f3565b5b50919050565b7f4552433732313a20617070726f76656420717565727920666f72206e6f6e657860008201527f697374656e7420746f6b656e0000000000000000000000000000000000000000602082015250565b60006122b0602c83611ac3565b91506122bb82612254565b604082019050919050565b600060208201905081810360008301526122df816122a3565b9050919050565b7f4552433732313a20617070726f76616c20746f2063757272656e74206f776e6560008201527f7200000000000000000000000000000000000000000000000000000000000000602082015250565b6000612342602183611ac3565b915061234d826122e6565b604082019050919050565b6000602082019050818103600083015261237181612335565b9050919050565b7f4552433732313a20617070726f76652063616c6c6572206973206e6f74206f7760008201527f6e6572206e6f7220617070726f76656420666f7220616c6c0000000000000000602082015250565b60006123d4603883611ac3565b91506123df82612378565b604082019050919050565b60006020820190508181036000830152612403816123c7565b9050919050565b7f4552433732313a207472616e736665722063616c6c6572206973206e6f74206f60008201527f776e6572206e6f7220617070726f766564000000000000000000000000000000602082015250565b6000612466603183611ac3565b91506124718261240a565b604082019050919050565b6000602082019050818103600083015261249581612459565b9050919050565b60008160601b9050919050565b60006124b48261249c565b9050919050565b60006124c6826124a9565b9050919050565b6124de6124d982611bf6565b6124bb565b82525050565b60006124f082846124cd565b60148201915081905092915050565b7f4552433732313a206f776e657220717565727920666f72206e6f6e657869737460008201527f656e7420746f6b656e0000000000000000000000000000000000000000000000602082015250565b600061255b602983611ac3565b9150612566826124ff565b604082019050919050565b6000602082019050818103600083015261258a8161254e565b9050919050565b7f4552433732313a2062616c616e636520717565727920666f7220746865207a6560008201527f726f206164647265737300000000000000000000000000000000000000000000602082015250565b60006125ed602a83611ac3565b91506125f882612591565b604082019050919050565b6000602082019050818103600083015261261c816125e0565b9050919050565b7f4552433732314d657461646174613a2055524920717565727920666f72206e6f60008201527f6e6578697374656e7420746f6b656e0000000000000000000000000000000000602082015250565b600061267f602f83611ac3565b915061268a82612623565b604082019050919050565b600060208201905081810360008301526126ae81612672565b9050919050565b7f4552433732313a206f70657261746f7220717565727920666f72206e6f6e657860008201527f697374656e7420746f6b656e0000000000000000000000000000000000000000602082015250565b6000612711602c83611ac3565b915061271c826126b5565b604082019050919050565b6000602082019050818103600083015261274081612704565b9050919050565b7f4552433732313a207472616e73666572206f6620746f6b656e2074686174206960008201527f73206e6f74206f776e0000000000000000000000000000000000000000000000602082015250565b60006127a3602983611ac3565b91506127ae82612747565b604082019050919050565b600060208201905081810360008301526127d281612796565b9050919050565b7f4552433732313a207472616e7366657220746f20746865207a65726f2061646460008201527f7265737300000000000000000000000000000000000000000000000000000000602082015250565b6000612835602483611ac3565b9150612840826127d9565b604082019050919050565b6000602082019050818103600083015261286481612828565b9050919050565b7f4e487b7100000000000000000000000000000000000000000000000000000000600052601160045260246000fd5b60006128a582611b73565b91506128b083611b73565b9250828210156128c3576128c261286b565b5b828203905092915050565b60006128d982611b73565b91506128e483611b73565b9250827fffffffffffffffffffffffffffffffffffffffffffffffffffffffffffffffff038211156129195761291861286b565b5b828201905092915050565b7f4552433732313a20617070726f766520746f2063616c6c657200000000000000600082015250565b600061295a601983611ac3565b915061296582612924565b602082019050919050565b600060208201905081810360008301526129898161294d565b9050919050565b7f4552433732313a207472616e7366657220746f206e6f6e20455243373231526560008201527f63656976657220696d706c656d656e7465720000000000000000000000000000602082015250565b60006129ec603283611ac3565b91506129f782612990565b604082019050919050565b60006020820190508181036000830152612a1b816129df565b9050919050565b600081519050919050565b600082825260208201905092915050565b6000612a4982612a22565b612a538185612a2d565b9350612a63818560208601611ad4565b612a6c81611b07565b840191505092915050565b6000608082019050612a8c6000830187611c08565b612a996020830186611c08565b612aa66040830185611df0565b8181036060830152612ab88184612a3e565b905095945050505050565b600081519050612ad281611a29565b92915050565b600060208284031215612aee57612aed6119f3565b5b6000612afc84828501612ac3565b91505092915050565b7f4552433732313a206d696e7420746f20746865207a65726f2061646472657373600082015250565b6000612b3b602083611ac3565b9150612b4682612b05565b602082019050919050565b60006020820190508181036000830152612b6a81612b2e565b9050919050565b7f4552433732313a20746f6b656e20616c7265616479206d696e74656400000000600082015250565b6000612ba7601c83611ac3565b9150612bb282612b71565b602082019050919050565b60006020820190508181036000830152612bd681612b9a565b905091905056fea2646970667358221220bdc1d9e0c4fa28977aac97a73f69ebedc5525691075271a4a7ae4694ed7bcba764736f6c634300080a0033",
  "immutableReferences": {},
  "source": "// SPDX-License-Identifier: MIT\npragma solidity 0.8.10;\n\n//                 _     _               \n//  _ __ ___   ___| |_  | |__   _____  __\n// | '_ ` _ \\ / _ \\ __| | '_ \\ / _ \\ \\/ /\n// | | | | | |  __/ |_  | | | |  __/>  < \n// |_| |_| |_|\\___|\\__| |_| |_|\\___/_/\\_\\\n//                                       \n//  Met Hex User Authentication\n//\n// Contract - https://t.me/geimskip\n\nimport \"@openzeppelin/contracts/access/Ownable.sol\";\nimport \"@openzeppelin/contracts/token/ERC721/ERC721.sol\";\n\n\nstruct User {\n    address owner;\n    string name;\n    string uri;\n}\n\n\ncontract UserAuth is ERC721 {\n    mapping(uint => User) _users;\n\n\n    constructor() ERC721(\"MetHex Auth\", \"METHEX-AUTH\") {\n    }\n\n\n    function Register(string memory name, string memory uri) external returns (uint tokenId) {\n        require(balanceOf(msg.sender) == 0);\n        tokenId = uint(keccak256(abi.encodePacked(msg.sender)));\n        _safeMint(msg.sender, tokenId);\n\n        User storage user = _users[tokenId];\n        user.owner = msg.sender;\n        user.name = name;\n        user.uri = uri;\n    } \n\n\n    function _beforeTokenTransfer(\n        address from,\n        address, //to,\n        uint256 //tokenId\n    ) internal pure override {\n        require(from == address(0));\n    }\n\n\n    function SetURI(uint256 tokenId, string memory uri) external {\n        require(ownerOf(tokenId) == msg.sender);\n        _users[tokenId].uri = uri;\n    }\n\n\n    function tokenURI(uint256 tokenId) public view virtual override returns (string memory) {\n        require(_exists(tokenId), \"ERC721Metadata: URI query for nonexistent token\");\n        return _users[tokenId].uri;\n    }\n\n    function GetTokenId(address account) external pure returns (uint tokenId) {\n        tokenId = uint(keccak256(abi.encodePacked(account)));\n    }\n\n    function GetUserInfo(uint256 tokenId) external view returns (User memory) {\n        return _users[tokenId];\n    }\n}",
  "sourcePath": "/home/davidg/Documents/Ethereum/MetHex/contracts/UserAuth.sol",
  "compiler": {
    "name": "solc",
    "version": "0.8.10+commit.fc410830.Emscripten.clang"
  },
  "schemaVersion": "3.4.3",
  "updatedAt": "2022-02-03T14:54:30.683Z",
  "networkType": "ethereum",
  "devdoc": {
    "kind": "dev",
    "methods": {
      "approve(address,uint256)": {
        "details": "See {IERC721-approve}."
      },
      "balanceOf(address)": {
        "details": "See {IERC721-balanceOf}."
      },
      "getApproved(uint256)": {
        "details": "See {IERC721-getApproved}."
      },
      "isApprovedForAll(address,address)": {
        "details": "See {IERC721-isApprovedForAll}."
      },
      "name()": {
        "details": "See {IERC721Metadata-name}."
      },
      "ownerOf(uint256)": {
        "details": "See {IERC721-ownerOf}."
      },
      "safeTransferFrom(address,address,uint256)": {
        "details": "See {IERC721-safeTransferFrom}."
      },
      "safeTransferFrom(address,address,uint256,bytes)": {
        "details": "See {IERC721-safeTransferFrom}."
      },
      "setApprovalForAll(address,bool)": {
        "details": "See {IERC721-setApprovalForAll}."
      },
      "supportsInterface(bytes4)": {
        "details": "See {IERC165-supportsInterface}."
      },
      "symbol()": {
        "details": "See {IERC721Metadata-symbol}."
      },
      "tokenURI(uint256)": {
        "details": "See {IERC721Metadata-tokenURI}."
      },
      "transferFrom(address,address,uint256)": {
        "details": "See {IERC721-transferFrom}."
      }
    },
    "version": 1
  },
  "userdoc": {
    "kind": "user",
    "methods": {},
    "version": 1
  }
}